{
  "_format": "hh-sol-artifact-1",
  "contractName": "BondDepositoryWBNB",
  "sourceName": "contracts/BondDepositoryWBNB.sol",
  "abi": [
    {
      "inputs": [
        {
          "internalType": "address",
          "name": "_SDOGE",
          "type": "address"
        },
        {
          "internalType": "address",
          "name": "_principle",
          "type": "address"
        },
        {
          "internalType": "address",
          "name": "_treasury",
          "type": "address"
        },
        {
          "internalType": "address",
          "name": "_DAO",
          "type": "address"
        },
        {
          "internalType": "address",
          "name": "_feed",
          "type": "address"
        }
      ],
      "stateMutability": "nonpayable",
      "type": "constructor"
    },
    {
      "anonymous": false,
      "inputs": [
        {
          "indexed": false,
          "internalType": "uint256",
          "name": "deposit",
          "type": "uint256"
        },
        {
          "indexed": true,
          "internalType": "uint256",
          "name": "payout",
          "type": "uint256"
        },
        {
          "indexed": true,
          "internalType": "uint256",
          "name": "expires",
          "type": "uint256"
        },
        {
          "indexed": true,
          "internalType": "uint256",
          "name": "priceInUSD",
          "type": "uint256"
        }
      ],
      "name": "BondCreated",
      "type": "event"
    },
    {
      "anonymous": false,
      "inputs": [
        {
          "indexed": true,
          "internalType": "uint256",
          "name": "priceInUSD",
          "type": "uint256"
        },
        {
          "indexed": true,
          "internalType": "uint256",
          "name": "internalPrice",
          "type": "uint256"
        },
        {
          "indexed": true,
          "internalType": "uint256",
          "name": "debtRatio",
          "type": "uint256"
        }
      ],
      "name": "BondPriceChanged",
      "type": "event"
    },
    {
      "anonymous": false,
      "inputs": [
        {
          "indexed": true,
          "internalType": "address",
          "name": "recipient",
          "type": "address"
        },
        {
          "indexed": false,
          "internalType": "uint256",
          "name": "payout",
          "type": "uint256"
        },
        {
          "indexed": false,
          "internalType": "uint256",
          "name": "remaining",
          "type": "uint256"
        }
      ],
      "name": "BondRedeemed",
      "type": "event"
    },
    {
      "anonymous": false,
      "inputs": [
        {
          "indexed": false,
          "internalType": "uint256",
          "name": "initialBCV",
          "type": "uint256"
        },
        {
          "indexed": false,
          "internalType": "uint256",
          "name": "newBCV",
          "type": "uint256"
        },
        {
          "indexed": false,
          "internalType": "uint256",
          "name": "adjustment",
          "type": "uint256"
        },
        {
          "indexed": false,
          "internalType": "bool",
          "name": "addition",
          "type": "bool"
        }
      ],
      "name": "ControlVariableAdjustment",
      "type": "event"
    },
    {
      "anonymous": false,
      "inputs": [
        {
          "indexed": true,
          "internalType": "address",
          "name": "previousOwner",
          "type": "address"
        },
        {
          "indexed": true,
          "internalType": "address",
          "name": "newOwner",
          "type": "address"
        }
      ],
      "name": "OwnershipPulled",
      "type": "event"
    },
    {
      "anonymous": false,
      "inputs": [
        {
          "indexed": true,
          "internalType": "address",
          "name": "previousOwner",
          "type": "address"
        },
        {
          "indexed": true,
          "internalType": "address",
          "name": "newOwner",
          "type": "address"
        }
      ],
      "name": "OwnershipPushed",
      "type": "event"
    },
    {
      "inputs": [],
      "name": "DAO",
      "outputs": [
        {
          "internalType": "address",
          "name": "",
          "type": "address"
        }
      ],
      "stateMutability": "view",
      "type": "function"
    },
    {
      "inputs": [],
      "name": "SDOGE",
      "outputs": [
        {
          "internalType": "address",
          "name": "",
          "type": "address"
        }
      ],
      "stateMutability": "view",
      "type": "function"
    },
    {
      "inputs": [],
      "name": "adjustment",
      "outputs": [
        {
          "internalType": "bool",
          "name": "add",
          "type": "bool"
        },
        {
          "internalType": "uint256",
          "name": "rate",
          "type": "uint256"
        },
        {
          "internalType": "uint256",
          "name": "target",
          "type": "uint256"
        },
        {
          "internalType": "uint256",
          "name": "buffer",
          "type": "uint256"
        },
        {
          "internalType": "uint256",
          "name": "lastBlock",
          "type": "uint256"
        }
      ],
      "stateMutability": "view",
      "type": "function"
    },
    {
      "inputs": [],
      "name": "assetPrice",
      "outputs": [
        {
          "internalType": "int256",
          "name": "",
          "type": "int256"
        }
      ],
      "stateMutability": "view",
      "type": "function"
    },
    {
      "inputs": [
        {
          "internalType": "address",
          "name": "",
          "type": "address"
        }
      ],
      "name": "bondInfo",
      "outputs": [
        {
          "internalType": "uint256",
          "name": "payout",
          "type": "uint256"
        },
        {
          "internalType": "uint256",
          "name": "vesting",
          "type": "uint256"
        },
        {
          "internalType": "uint256",
          "name": "lastBlock",
          "type": "uint256"
        },
        {
          "internalType": "uint256",
          "name": "pricePaid",
          "type": "uint256"
        }
      ],
      "stateMutability": "view",
      "type": "function"
    },
    {
      "inputs": [],
      "name": "bondPrice",
      "outputs": [
        {
          "internalType": "uint256",
          "name": "price_",
          "type": "uint256"
        }
      ],
      "stateMutability": "view",
      "type": "function"
    },
    {
      "inputs": [],
      "name": "bondPriceInUSD",
      "outputs": [
        {
          "internalType": "uint256",
          "name": "price_",
          "type": "uint256"
        }
      ],
      "stateMutability": "view",
      "type": "function"
    },
    {
      "inputs": [],
      "name": "currentDebt",
      "outputs": [
        {
          "internalType": "uint256",
          "name": "",
          "type": "uint256"
        }
      ],
      "stateMutability": "view",
      "type": "function"
    },
    {
      "inputs": [],
      "name": "debtDecay",
      "outputs": [
        {
          "internalType": "uint256",
          "name": "decay_",
          "type": "uint256"
        }
      ],
      "stateMutability": "view",
      "type": "function"
    },
    {
      "inputs": [],
      "name": "debtRatio",
      "outputs": [
        {
          "internalType": "uint256",
          "name": "debtRatio_",
          "type": "uint256"
        }
      ],
      "stateMutability": "view",
      "type": "function"
    },
    {
      "inputs": [
        {
          "internalType": "uint256",
          "name": "_amount",
          "type": "uint256"
        },
        {
          "internalType": "uint256",
          "name": "_maxPrice",
          "type": "uint256"
        },
        {
          "internalType": "address",
          "name": "_depositor",
          "type": "address"
        }
      ],
      "name": "deposit",
      "outputs": [
        {
          "internalType": "uint256",
          "name": "",
          "type": "uint256"
        }
      ],
      "stateMutability": "nonpayable",
      "type": "function"
    },
    {
      "inputs": [
        {
          "internalType": "uint256",
          "name": "_controlVariable",
          "type": "uint256"
        },
        {
          "internalType": "uint256",
          "name": "_vestingTerm",
          "type": "uint256"
        },
        {
          "internalType": "uint256",
          "name": "_minimumPrice",
          "type": "uint256"
        },
        {
          "internalType": "uint256",
          "name": "_maxPayout",
          "type": "uint256"
        },
        {
          "internalType": "uint256",
          "name": "_maxDebt",
          "type": "uint256"
        },
        {
          "internalType": "uint256",
          "name": "_initialDebt",
          "type": "uint256"
        }
      ],
      "name": "initializeBondTerms",
      "outputs": [],
      "stateMutability": "nonpayable",
      "type": "function"
    },
    {
      "inputs": [],
      "name": "lastDecay",
      "outputs": [
        {
          "internalType": "uint256",
          "name": "",
          "type": "uint256"
        }
      ],
      "stateMutability": "view",
      "type": "function"
    },
    {
      "inputs": [],
      "name": "maxPayout",
      "outputs": [
        {
          "internalType": "uint256",
          "name": "",
          "type": "uint256"
        }
      ],
      "stateMutability": "view",
      "type": "function"
    },
    {
      "inputs": [
        {
          "internalType": "uint256",
          "name": "_value",
          "type": "uint256"
        }
      ],
      "name": "payoutFor",
      "outputs": [
        {
          "internalType": "uint256",
          "name": "",
          "type": "uint256"
        }
      ],
      "stateMutability": "view",
      "type": "function"
    },
    {
      "inputs": [
        {
          "internalType": "address",
          "name": "_depositor",
          "type": "address"
        }
      ],
      "name": "pendingPayoutFor",
      "outputs": [
        {
          "internalType": "uint256",
          "name": "pendingPayout_",
          "type": "uint256"
        }
      ],
      "stateMutability": "view",
      "type": "function"
    },
    {
      "inputs": [
        {
          "internalType": "address",
          "name": "_depositor",
          "type": "address"
        }
      ],
      "name": "percentVestedFor",
      "outputs": [
        {
          "internalType": "uint256",
          "name": "percentVested_",
          "type": "uint256"
        }
      ],
      "stateMutability": "view",
      "type": "function"
    },
    {
      "inputs": [],
      "name": "policy",
      "outputs": [
        {
          "internalType": "address",
          "name": "",
          "type": "address"
        }
      ],
      "stateMutability": "view",
      "type": "function"
    },
    {
      "inputs": [],
      "name": "principle",
      "outputs": [
        {
          "internalType": "address",
          "name": "",
          "type": "address"
        }
      ],
      "stateMutability": "view",
      "type": "function"
    },
    {
      "inputs": [],
      "name": "pullManagement",
      "outputs": [],
      "stateMutability": "nonpayable",
      "type": "function"
    },
    {
      "inputs": [
        {
          "internalType": "address",
          "name": "newOwner_",
          "type": "address"
        }
      ],
      "name": "pushManagement",
      "outputs": [],
      "stateMutability": "nonpayable",
      "type": "function"
    },
    {
      "inputs": [
        {
          "internalType": "address",
          "name": "_token",
          "type": "address"
        }
      ],
      "name": "recoverLostToken",
      "outputs": [
        {
          "internalType": "bool",
          "name": "",
          "type": "bool"
        }
      ],
      "stateMutability": "nonpayable",
      "type": "function"
    },
    {
      "inputs": [
        {
          "internalType": "address",
          "name": "_recipient",
          "type": "address"
        },
        {
          "internalType": "bool",
          "name": "_stake",
          "type": "bool"
        }
      ],
      "name": "redeem",
      "outputs": [
        {
          "internalType": "uint256",
          "name": "",
          "type": "uint256"
        }
      ],
      "stateMutability": "nonpayable",
      "type": "function"
    },
    {
      "inputs": [],
      "name": "renounceManagement",
      "outputs": [],
      "stateMutability": "nonpayable",
      "type": "function"
    },
    {
      "inputs": [
        {
          "internalType": "bool",
          "name": "_addition",
          "type": "bool"
        },
        {
          "internalType": "uint256",
          "name": "_increment",
          "type": "uint256"
        },
        {
          "internalType": "uint256",
          "name": "_target",
          "type": "uint256"
        },
        {
          "internalType": "uint256",
          "name": "_buffer",
          "type": "uint256"
        }
      ],
      "name": "setAdjustment",
      "outputs": [],
      "stateMutability": "nonpayable",
      "type": "function"
    },
    {
      "inputs": [
        {
          "internalType": "enum BondDepositoryWBNB.PARAMETER",
          "name": "_parameter",
          "type": "uint8"
        },
        {
          "internalType": "uint256",
          "name": "_input",
          "type": "uint256"
        }
      ],
      "name": "setBondTerms",
      "outputs": [],
      "stateMutability": "nonpayable",
      "type": "function"
    },
    {
      "inputs": [
        {
          "internalType": "address",
          "name": "_staking",
          "type": "address"
        },
        {
          "internalType": "bool",
          "name": "_useClaim",
          "type": "bool"
        }
      ],
      "name": "setStaking",
      "outputs": [],
      "stateMutability": "nonpayable",
      "type": "function"
    },
    {
      "inputs": [],
      "name": "staking",
      "outputs": [
        {
          "internalType": "address",
          "name": "",
          "type": "address"
        }
      ],
      "stateMutability": "view",
      "type": "function"
    },
    {
      "inputs": [],
      "name": "standardizedDebtRatio",
      "outputs": [
        {
          "internalType": "uint256",
          "name": "",
          "type": "uint256"
        }
      ],
      "stateMutability": "view",
      "type": "function"
    },
    {
      "inputs": [],
      "name": "terms",
      "outputs": [
        {
          "internalType": "uint256",
          "name": "controlVariable",
          "type": "uint256"
        },
        {
          "internalType": "uint256",
          "name": "vestingTerm",
          "type": "uint256"
        },
        {
          "internalType": "uint256",
          "name": "minimumPrice",
          "type": "uint256"
        },
        {
          "internalType": "uint256",
          "name": "maxPayout",
          "type": "uint256"
        },
        {
          "internalType": "uint256",
          "name": "maxDebt",
          "type": "uint256"
        }
      ],
      "stateMutability": "view",
      "type": "function"
    },
    {
      "inputs": [],
      "name": "totalDebt",
      "outputs": [
        {
          "internalType": "uint256",
          "name": "",
          "type": "uint256"
        }
      ],
      "stateMutability": "view",
      "type": "function"
    },
    {
      "inputs": [],
      "name": "treasury",
      "outputs": [
        {
          "internalType": "address",
          "name": "",
          "type": "address"
        }
      ],
      "stateMutability": "view",
      "type": "function"
    },
    {
      "inputs": [],
      "name": "useClaim",
      "outputs": [
        {
          "internalType": "bool",
          "name": "",
          "type": "bool"
        }
      ],
      "stateMutability": "view",
      "type": "function"
    }
  ],
  "bytecode": "0x6101006040523480156200001257600080fd5b506040516200260538038062002605833981810160405260a08110156200003857600080fd5b50805160208201516040808401516060850151608090950151600080546001600160a01b031916331780825593519596949592949391926001600160a01b0392909216917fea8258f2d9ddb679928cf34b78cf645b7feda9acc828e4dd82d014eaae270eba908290a36001600160a01b038516620000b557600080fd5b6001600160601b0319606086901b166080526001600160a01b038416620000db57600080fd5b6001600160601b0319606085901b1660a0526001600160a01b0383166200010157600080fd5b6001600160601b0319606084901b1660c0526001600160a01b0382166200012757600080fd5b6001600160601b0319606083901b1660e0526001600160a01b0381166200014d57600080fd5b600280546001600160a01b039092166001600160a01b03199092169190911790555050505060805160601c60a05160601c60c05160601c60e05160601c61241a620001eb600039806113a5528061144c525080610d725280610ffa52806111ac52806111f852508061057752806110295280611189528061140a525080610aec52806113cb5280611529528061177f5280611914525061241a6000f3fe608060405234801561001057600080fd5b506004361061020b5760003560e01c80637b2617271161012a578063d24378eb116100bd578063e0176de81161008c578063e75d064611610071578063e75d06461461055d578063f5c2ab5b14610565578063fc7b9c181461056d5761020b565b8063e0176de81461054d578063e392a262146105555761020b565b8063d24378eb146104dc578063d4d863ce146104e4578063d502562514610512578063d7ccfb0b146105455761020b565b806398fabd3a116100f957806398fabd3a14610446578063b4abccba1461044e578063cd1234b314610488578063cea55f57146104d45761020b565b80637b261727146103c9578063844b5c7c146104045780638dbdbe6d1461040c578063904b3ece1461043e5761020b565b8063451ee4a1116101a25780635a96ac0a116101715780635a96ac0a1461039457806361d027b31461039c578063759076e5146103a45780637927ebf8146103ac5761020b565b8063451ee4a11461030b57806346f68ee9146103405780634cf088d914610366578063507930ec1461036e5761020b565b80631a3d0068116101de5780631a3d00681461027e5780631e321a0f146102af5780631feed31f146102d5578063226d9634146103035761020b565b8063016a42841461021057806301b88ee8146102345780630505c8c91461026c578063089208d814610274575b600080fd5b610218610575565b604080516001600160a01b039092168252519081900360200190f35b61025a6004803603602081101561024a57600080fd5b50356001600160a01b0316610599565b60408051918252519081900360200190f35b6102186105f2565b61027c610602565b005b61027c6004803603608081101561029457600080fd5b508035151590602081013590604081013590606001356106ab565b61027c600480360360408110156102c557600080fd5b5060ff81351690602001356107bf565b61025a600480360360408110156102eb57600080fd5b506001600160a01b03813516906020013515156108f5565b610218610aea565b610313610b0e565b60408051951515865260208601949094528484019290925260608401526080830152519081900360a00190f35b61027c6004803603602081101561035657600080fd5b50356001600160a01b0316610b26565b610218610c25565b61025a6004803603602081101561038457600080fd5b50356001600160a01b0316610c34565b61027c610cc6565b610218610d70565b61025a610d94565b61025a600480360360208110156103c257600080fd5b5035610daf565b61027c600480360360c08110156103df57600080fd5b5080359060208101359060408101359060608101359060808101359060a00135610dd4565b61025a610ebf565b61025a6004803603606081101561042257600080fd5b50803590602081013590604001356001600160a01b0316610ee1565b61025a611386565b6102186113a3565b6104746004803603602081101561046457600080fd5b50356001600160a01b03166113c7565b604080519115158252519081900360200190f35b6104ae6004803603602081101561049e57600080fd5b50356001600160a01b03166114fd565b604080519485526020850193909352838301919091526060830152519081900360800190f35b61025a611524565b61025a6115dc565b61027c600480360360408110156104fa57600080fd5b506001600160a01b0381351690602001351515611662565b61051a611728565b6040805195865260208601949094528484019290925260608401526080830152519081900360a00190f35b61025a61173a565b61025a61176b565b61025a611808565b61047461184d565b61025a61185d565b61025a611863565b7f000000000000000000000000000000000000000000000000000000000000000081565b6000806105a583610c34565b6001600160a01b0384166000908152600e602052604090205490915061271082106105d2578092506105eb565b6105e86127106105e28385611869565b906118c9565b92505b5050919050565b6000546001600160a01b03165b90565b6000546001600160a01b03163314610661576040805162461bcd60e51b815260206004820181905260248201527f4f776e61626c653a2063616c6c6572206973206e6f7420746865206f776e6572604482015290519081900360640190fd5b600080546040516001600160a01b03909116907fea8258f2d9ddb679928cf34b78cf645b7feda9acc828e4dd82d014eaae270eba908390a3600080546001600160a01b0319169055565b6000546001600160a01b0316331461070a576040805162461bcd60e51b815260206004820181905260248201527f4f776e61626c653a2063616c6c6572206973206e6f7420746865206f776e6572604482015290519081900360640190fd5b600454610720906103e8906105e2906019611869565b831115610774576040805162461bcd60e51b815260206004820152601360248201527f496e6372656d656e7420746f6f206c6172676500000000000000000000000000604482015290519081900360640190fd5b6040805160a08101825294151580865260208601859052908501839052606085018290524360809095018590526009805460ff19169091179055600a92909255600b55600c55600d55565b6000546001600160a01b0316331461081e576040805162461bcd60e51b815260206004820181905260248201527f4f776e61626c653a2063616c6c6572206973206e6f7420746865206f776e6572604482015290519081900360640190fd5b600082600481111561082c57fe5b141561087d576127108110156108735760405162461bcd60e51b81526004018080602001828103825260248152602001806123ea6024913960400191505060405180910390fd5b60058190556108f1565b600182600481111561088b57fe5b141561089b5760078190556108f1565b60028260048111156108a957fe5b14156108b95760088190556108f1565b60038260048111156108c757fe5b14156108d75760068190556108f1565b60048260048111156108e557fe5b14156108f15760048190555b5050565b60006108ff6122dc565b506001600160a01b0383166000908152600e602090815260408083208151608081018352815481526001820154938101939093526002810154918301919091526003015460608201529061095285610c34565b905061271081106109e2576001600160a01b0385166000818152600e602090815260408083208381556001810184905560028101849055600301839055855181519081529182019290925281517f51c99f515c87b0d95ba97f616edd182e8f161c4932eac17c6fefe9dab58b77b1929181900390910190a26109d98585846000015161190b565b92505050610ae4565b81516000906109f990612710906105e29085611869565b90506040518060800160405280610a1d838660000151611a5690919063ffffffff16565b8152602001610a47610a3c866040015143611a5690919063ffffffff16565b602087015190611a56565b8152436020808301919091526060808701516040938401526001600160a01b038a166000818152600e84528490208551808255868501516001830155868601516002830155959092015160039092019190915582518581529182019390935281517f51c99f515c87b0d95ba97f616edd182e8f161c4932eac17c6fefe9dab58b77b1929181900390910190a2610ade86868361190b565b93505050505b92915050565b7f000000000000000000000000000000000000000000000000000000000000000081565b600954600a54600b54600c54600d5460ff9094169385565b6000546001600160a01b03163314610b85576040805162461bcd60e51b815260206004820181905260248201527f4f776e61626c653a2063616c6c6572206973206e6f7420746865206f776e6572604482015290519081900360640190fd5b6001600160a01b038116610bca5760405162461bcd60e51b81526004018080602001828103825260268152602001806123176026913960400191505060405180910390fd5b600080546040516001600160a01b03808516939216917fea8258f2d9ddb679928cf34b78cf645b7feda9acc828e4dd82d014eaae270eba91a3600180546001600160a01b0319166001600160a01b0392909216919091179055565b6003546001600160a01b031681565b6000610c3e6122dc565b506001600160a01b0382166000908152600e602090815260408083208151608081018352815481526001820154938101939093526002810154918301829052600301546060830152909190610c94904390611a56565b60208301519091508015610cb957610cb2816105e284612710611869565b9350610cbe565b600093505b505050919050565b6001546001600160a01b03163314610d0f5760405162461bcd60e51b815260040180806020018281038252602281526020018061233d6022913960400191505060405180910390fd5b600154600080546040516001600160a01b0393841693909116917faa151555690c956fc3ea32f106bb9f119b5237a061eaa8557cff3e51e3792c8d91a3600154600080546001600160a01b0319166001600160a01b03909216919091179055565b7f000000000000000000000000000000000000000000000000000000000000000081565b6000610daa610da1611808565b600f5490611a56565b905090565b6000610ae4655af3107a40006105e2610dcf85610dca61173a565b611a98565b611c1a565b6000546001600160a01b03163314610e33576040805162461bcd60e51b815260206004820181905260248201527f4f776e61626c653a2063616c6c6572206973206e6f7420746865206f776e6572604482015290519081900360640190fd5b610e3b610d94565b15610e775760405162461bcd60e51b81526004018080602001828103825260218152602001806123856021913960400191505060405180910390fd5b6040805160a0810182528781526020810187905290810185905260608101849052608001829052600495909555600593909355600691909155600755600855600f5543601055565b6000610daa620f4240610edb610ed36115dc565b610edb61173a565b90611869565b60006001600160a01b038216610f3e576040805162461bcd60e51b815260206004820152600f60248201527f496e76616c696420616464726573730000000000000000000000000000000000604482015290519081900360640190fd5b610f46611c32565b600854600f541115610f9f576040805162461bcd60e51b815260206004820152601460248201527f4d61782063617061636974792072656163686564000000000000000000000000604482015290519081900360640190fd5b6000610fa9610ebf565b90506000610fb5611c46565b905080851015610ff65760405162461bcd60e51b81526004018080602001828103825260238152602001806123c76023913960400191505060405180910390fd5b60007f00000000000000000000000000000000000000000000000000000000000000006001600160a01b0316631eec5a9a7f0000000000000000000000000000000000000000000000000000000000000000896040518363ffffffff1660e01b815260040180836001600160a01b031681526020018281526020019250505060206040518083038186803b15801561108d57600080fd5b505afa1580156110a1573d6000803e3d6000fd5b505050506040513d60208110156110b757600080fd5b5051905060006110c682610daf565b905062989680811015611120576040805162461bcd60e51b815260206004820152600e60248201527f426f6e6420746f6f20736d616c6c000000000000000000000000000000000000604482015290519081900360640190fd5b61112861176b565b81111561117c576040805162461bcd60e51b815260206004820152600e60248201527f426f6e6420746f6f206c61726765000000000000000000000000000000000000604482015290519081900360640190fd5b6111d16001600160a01b037f000000000000000000000000000000000000000000000000000000000000000016337f00000000000000000000000000000000000000000000000000000000000000008b611c80565b604080516335106f4960e11b81523060048201526024810183905290516001600160a01b037f00000000000000000000000000000000000000000000000000000000000000001691636a20de9291604480830192600092919082900301818387803b15801561123f57600080fd5b505af1158015611253573d6000803e3d6000fd5b5050600f546112659250905083611df3565b600f55604080516080810182526001600160a01b0388166000908152600e602052919091205481906112979084611df3565b81526005805460208084019190915243604080850182905260609485018a90526001600160a01b038c166000908152600e845281902086518155928601516001840155850151600283015593909201516003909201919091555485916112fc91611df3565b604080518b8152905184917f1fec6dc81f140574bf43f6b1e420ae1dd47928b9d57db8cbd7b8611063b85ae5919081900360200190a461133a611524565b611342611c46565b61134a610ebf565b6040517f375b221f40939bfd8f49723a17cf7bc6d576ebf72efe2cc3e991826f5b3f390a90600090a461137b611e4d565b979650505050505050565b6000610daa6305f5e1006105e261139b6115dc565b610edb611524565b7f000000000000000000000000000000000000000000000000000000000000000081565b60007f00000000000000000000000000000000000000000000000000000000000000006001600160a01b0316826001600160a01b0316141561140857600080fd5b7f00000000000000000000000000000000000000000000000000000000000000006001600160a01b0316826001600160a01b0316141561144757600080fd5b6114f57f0000000000000000000000000000000000000000000000000000000000000000836001600160a01b03166370a08231306040518263ffffffff1660e01b815260040180826001600160a01b0316815260200191505060206040518083038186803b1580156114b857600080fd5b505afa1580156114cc573d6000803e3d6000fd5b505050506040513d60208110156114e257600080fd5b50516001600160a01b0385169190611f2d565b506001919050565b600e6020526000908152604090208054600182015460028301546003909301549192909184565b6000807f00000000000000000000000000000000000000000000000000000000000000006001600160a01b03166318160ddd6040518163ffffffff1660e01b815260040160206040518083038186803b15801561158057600080fd5b505afa158015611594573d6000803e3d6000fd5b505050506040513d60208110156115aa57600080fd5b505190506115d6670de0b6b3a76400006105e2610dcf6115d0633b9aca00610edb610d94565b85611a98565b91505090565b600080600260009054906101000a90046001600160a01b03166001600160a01b031663feaf968c6040518163ffffffff1660e01b815260040160a06040518083038186803b15801561162d57600080fd5b505afa158015611641573d6000803e3d6000fd5b505050506040513d60a081101561165757600080fd5b506020015191505090565b6000546001600160a01b031633146116c1576040805162461bcd60e51b815260206004820181905260248201527f4f776e61626c653a2063616c6c6572206973206e6f7420746865206f776e6572604482015290519081900360640190fd5b6001600160a01b0382166116d457600080fd5b600380547fffffffffffffffffffffff00ffffffffffffffffffffffffffffffffffffffff16600160a01b92151592909202919091176001600160a01b0319166001600160a01b0392909216919091179055565b60045460055460065460075460085485565b6000611757620186a06105e261174e611524565b60045490611869565b6006549091508110156105ff575060065490565b6000610daa620186a06105e26004600301547f00000000000000000000000000000000000000000000000000000000000000006001600160a01b03166318160ddd6040518163ffffffff1660e01b815260040160206040518083038186803b1580156117d657600080fd5b505afa1580156117ea573d6000803e3d6000fd5b505050506040513d602081101561180057600080fd5b505190611869565b60008061182060105443611a5690919063ffffffff16565b600554600f54919250611837916105e29084611869565b9150600f5482111561184957600f5491505b5090565b600354600160a01b900460ff1681565b60105481565b600f5481565b60008261187857506000610ae4565b8282028284828161188557fe5b04146118c25760405162461bcd60e51b81526004018080602001828103825260218152602001806123a66021913960400191505060405180910390fd5b9392505050565b60006118c283836040518060400160405280601a81526020017f536166654d6174683a206469766973696f6e206279207a65726f000000000000815250612097565b6000826119bb577f00000000000000000000000000000000000000000000000000000000000000006001600160a01b031663a9059cbb85846040518363ffffffff1660e01b815260040180836001600160a01b0316815260200182815260200192505050602060405180830381600087803b15801561198957600080fd5b505af115801561199d573d6000803e3d6000fd5b505050506040513d60208110156119b357600080fd5b50611a4f9050565b6003546040805163995846bd60e01b81526001600160a01b0387811660048301526024820186905260ff600160a01b850416151560448301529151919092169163995846bd9160648083019260209291908290030181600087803b158015611a2257600080fd5b505af1158015611a36573d6000803e3d6000fd5b505050506040513d6020811015611a4c57600080fd5b50505b5092915050565b60006118c283836040518060400160405280601e81526020017f536166654d6174683a207375627472616374696f6e206f766572666c6f770000815250612150565b611aa0612304565b60008211611adf5760405162461bcd60e51b815260040180806020018281038252602681526020018061235f6026913960400191505060405180910390fd5b82611af95750604080516020810190915260008152610ae4565b71ffffffffffffffffffffffffffffffffffff8311611ba057600082607085901b81611b2157fe5b0490506001600160e01b03811115611b80576040805162461bcd60e51b815260206004820152601e60248201527f4669786564506f696e743a3a6672616374696f6e3a206f766572666c6f770000604482015290519081900360640190fd5b6040518060200160405280826001600160e01b0316815250915050610ae4565b6000611bbc846e010000000000000000000000000000856121aa565b90506001600160e01b03811115611b80576040805162461bcd60e51b815260206004820152601e60248201527f4669786564506f696e743a3a6672616374696f6e3a206f766572666c6f770000604482015290519081900360640190fd5b516612725dd1d243ab6001600160e01b039091160490565b611c3d610da1611808565b600f5543601055565b6000611c5a620186a06105e261174e611524565b600654909150811015611c7057506006546105ff565b600654156105ff57600060065590565b604080516001600160a01b0385811660248301528481166044830152606480830185905283518084039091018152608490920183526020820180516001600160e01b03166323b872dd60e01b17815292518251600094606094938a169392918291908083835b60208310611d055780518252601f199092019160209182019101611ce6565b6001836020036101000a0380198251168184511680821785525050505050509050019150506000604051808303816000865af19150503d8060008114611d67576040519150601f19603f3d011682016040523d82523d6000602084013e611d6c565b606091505b5091509150818015611d9a575080511580611d9a5750808060200190516020811015611d9757600080fd5b50515b611deb576040805162461bcd60e51b815260206004820152601460248201527f5452414e534645525f46524f4d5f4641494c4544000000000000000000000000604482015290519081900360640190fd5b505050505050565b6000828201838110156118c2576040805162461bcd60e51b815260206004820152601b60248201527f536166654d6174683a206164646974696f6e206f766572666c6f770000000000604482015290519081900360640190fd5b600c54600d54600091611e609190611df3565b600a5490915015801590611e745750804310155b15611f2a5760045460095460ff1615611eae57600a54600454611e9691611df3565b6004819055600b5411611ea9576000600a555b611ed0565b600a54600454611ebd91611a56565b6004819055600b5410611ed0576000600a555b43600d55600454600a546009546040805185815260208101949094528381019290925260ff1615156060830152517fb923e581a0f83128e9e1d8297aa52b18d6744310476e0b54509c054cd7a93b2a9181900360800190a1505b50565b604080516001600160a01b038481166024830152604480830185905283518084039091018152606490920183526020820180516001600160e01b031663a9059cbb60e01b178152925182516000946060949389169392918291908083835b60208310611faa5780518252601f199092019160209182019101611f8b565b6001836020036101000a0380198251168184511680821785525050505050509050019150506000604051808303816000865af19150503d806000811461200c576040519150601f19603f3d011682016040523d82523d6000602084013e612011565b606091505b509150915081801561203f57508051158061203f575080806020019051602081101561203c57600080fd5b50515b612090576040805162461bcd60e51b815260206004820152600f60248201527f5452414e534645525f4641494c45440000000000000000000000000000000000604482015290519081900360640190fd5b5050505050565b600081836121235760405162461bcd60e51b81526004018080602001828103825283818151815260200191508051906020019080838360005b838110156120e85781810151838201526020016120d0565b50505050905090810190601f1680156121155780820380516001836020036101000a031916815260200191505b509250505060405180910390fd5b50600083858161212f57fe5b04905083858161213b57fe5b0681850201851461214857fe5b949350505050565b600081848411156121a25760405162461bcd60e51b81526020600482018181528351602484015283519092839260449091019190850190808383600083156120e85781810151838201526020016120d0565b505050900390565b60008060006121b9868661223f565b91509150600084806121c757fe5b8688099050828111156121db576001820391505b8083039250848210612234576040805162461bcd60e51b815260206004820152601a60248201527f46756c6c4d6174683a3a6d756c4469763a206f766572666c6f77000000000000604482015290519081900360640190fd5b61137b83838761226c565b6000808060001984860990508385029250828103915082811015612264576001820391505b509250929050565b6000818103821680838161227c57fe5b04925080858161228857fe5b04945080816000038161229757fe5b60028581038087028203028087028203028087028203028087028203028087028203028087028203029586029003909402930460010193909302939093010292915050565b6040518060800160405280600081526020016000815260200160008152602001600081525090565b6040805160208101909152600081529056fe4f776e61626c653a206e6577206f776e657220697320746865207a65726f20616464726573734f776e61626c653a206d757374206265206e6577206f776e657220746f2070756c6c4669786564506f696e743a3a6672616374696f6e3a206469766973696f6e206279207a65726f44656274206d757374206265203020666f7220696e697469616c697a6174696f6e536166654d6174683a206d756c7469706c69636174696f6e206f766572666c6f77536c697070616765206c696d69743a206d6f7265207468616e206d617820707269636556657374696e67206d757374206265206c6f6e676572207468616e20333620686f757273a164736f6c6343000705000a",
  "linkReferences": {},
  "deployedLinkReferences": {}
}