{
  "_format": "hh-sol-artifact-1",
  "contractName": "BondDepository",
  "sourceName": "contracts/BondDepository.sol",
  "abi": [
    {
      "inputs": [
        {
          "internalType": "address",
          "name": "_SDOGE",
          "type": "address"
        },
        {
          "internalType": "address",
          "name": "_principle",
          "type": "address"
        },
        {
          "internalType": "address",
          "name": "_treasury",
          "type": "address"
        },
        {
          "internalType": "address",
          "name": "_DAO",
          "type": "address"
        },
        {
          "internalType": "address",
          "name": "_bondCalculator",
          "type": "address"
        }
      ],
      "stateMutability": "nonpayable",
      "type": "constructor"
    },
    {
      "anonymous": false,
      "inputs": [
        {
          "indexed": false,
          "internalType": "uint256",
          "name": "deposit",
          "type": "uint256"
        },
        {
          "indexed": true,
          "internalType": "uint256",
          "name": "payout",
          "type": "uint256"
        },
        {
          "indexed": true,
          "internalType": "uint256",
          "name": "expires",
          "type": "uint256"
        },
        {
          "indexed": true,
          "internalType": "uint256",
          "name": "priceInUSD",
          "type": "uint256"
        }
      ],
      "name": "BondCreated",
      "type": "event"
    },
    {
      "anonymous": false,
      "inputs": [
        {
          "indexed": true,
          "internalType": "uint256",
          "name": "priceInUSD",
          "type": "uint256"
        },
        {
          "indexed": true,
          "internalType": "uint256",
          "name": "internalPrice",
          "type": "uint256"
        },
        {
          "indexed": true,
          "internalType": "uint256",
          "name": "debtRatio",
          "type": "uint256"
        }
      ],
      "name": "BondPriceChanged",
      "type": "event"
    },
    {
      "anonymous": false,
      "inputs": [
        {
          "indexed": true,
          "internalType": "address",
          "name": "recipient",
          "type": "address"
        },
        {
          "indexed": false,
          "internalType": "uint256",
          "name": "payout",
          "type": "uint256"
        },
        {
          "indexed": false,
          "internalType": "uint256",
          "name": "remaining",
          "type": "uint256"
        }
      ],
      "name": "BondRedeemed",
      "type": "event"
    },
    {
      "anonymous": false,
      "inputs": [
        {
          "indexed": false,
          "internalType": "uint256",
          "name": "initialBCV",
          "type": "uint256"
        },
        {
          "indexed": false,
          "internalType": "uint256",
          "name": "newBCV",
          "type": "uint256"
        },
        {
          "indexed": false,
          "internalType": "uint256",
          "name": "adjustment",
          "type": "uint256"
        },
        {
          "indexed": false,
          "internalType": "bool",
          "name": "addition",
          "type": "bool"
        }
      ],
      "name": "ControlVariableAdjustment",
      "type": "event"
    },
    {
      "anonymous": false,
      "inputs": [
        {
          "indexed": true,
          "internalType": "address",
          "name": "previousOwner",
          "type": "address"
        },
        {
          "indexed": true,
          "internalType": "address",
          "name": "newOwner",
          "type": "address"
        }
      ],
      "name": "OwnershipPulled",
      "type": "event"
    },
    {
      "anonymous": false,
      "inputs": [
        {
          "indexed": true,
          "internalType": "address",
          "name": "previousOwner",
          "type": "address"
        },
        {
          "indexed": true,
          "internalType": "address",
          "name": "newOwner",
          "type": "address"
        }
      ],
      "name": "OwnershipPushed",
      "type": "event"
    },
    {
      "inputs": [],
      "name": "DAO",
      "outputs": [
        {
          "internalType": "address",
          "name": "",
          "type": "address"
        }
      ],
      "stateMutability": "view",
      "type": "function"
    },
    {
      "inputs": [],
      "name": "SDOGE",
      "outputs": [
        {
          "internalType": "address",
          "name": "",
          "type": "address"
        }
      ],
      "stateMutability": "view",
      "type": "function"
    },
    {
      "inputs": [],
      "name": "adjustment",
      "outputs": [
        {
          "internalType": "bool",
          "name": "add",
          "type": "bool"
        },
        {
          "internalType": "uint256",
          "name": "rate",
          "type": "uint256"
        },
        {
          "internalType": "uint256",
          "name": "target",
          "type": "uint256"
        },
        {
          "internalType": "uint256",
          "name": "buffer",
          "type": "uint256"
        },
        {
          "internalType": "uint256",
          "name": "lastBlock",
          "type": "uint256"
        }
      ],
      "stateMutability": "view",
      "type": "function"
    },
    {
      "inputs": [],
      "name": "bondCalculator",
      "outputs": [
        {
          "internalType": "address",
          "name": "",
          "type": "address"
        }
      ],
      "stateMutability": "view",
      "type": "function"
    },
    {
      "inputs": [
        {
          "internalType": "address",
          "name": "",
          "type": "address"
        }
      ],
      "name": "bondInfo",
      "outputs": [
        {
          "internalType": "uint256",
          "name": "payout",
          "type": "uint256"
        },
        {
          "internalType": "uint256",
          "name": "vesting",
          "type": "uint256"
        },
        {
          "internalType": "uint256",
          "name": "lastBlock",
          "type": "uint256"
        },
        {
          "internalType": "uint256",
          "name": "pricePaid",
          "type": "uint256"
        }
      ],
      "stateMutability": "view",
      "type": "function"
    },
    {
      "inputs": [],
      "name": "bondPrice",
      "outputs": [
        {
          "internalType": "uint256",
          "name": "price_",
          "type": "uint256"
        }
      ],
      "stateMutability": "view",
      "type": "function"
    },
    {
      "inputs": [],
      "name": "bondPriceInUSD",
      "outputs": [
        {
          "internalType": "uint256",
          "name": "price_",
          "type": "uint256"
        }
      ],
      "stateMutability": "view",
      "type": "function"
    },
    {
      "inputs": [],
      "name": "currentDebt",
      "outputs": [
        {
          "internalType": "uint256",
          "name": "",
          "type": "uint256"
        }
      ],
      "stateMutability": "view",
      "type": "function"
    },
    {
      "inputs": [],
      "name": "debtDecay",
      "outputs": [
        {
          "internalType": "uint256",
          "name": "decay_",
          "type": "uint256"
        }
      ],
      "stateMutability": "view",
      "type": "function"
    },
    {
      "inputs": [],
      "name": "debtRatio",
      "outputs": [
        {
          "internalType": "uint256",
          "name": "debtRatio_",
          "type": "uint256"
        }
      ],
      "stateMutability": "view",
      "type": "function"
    },
    {
      "inputs": [
        {
          "internalType": "uint256",
          "name": "_amount",
          "type": "uint256"
        },
        {
          "internalType": "uint256",
          "name": "_maxPrice",
          "type": "uint256"
        },
        {
          "internalType": "address",
          "name": "_depositor",
          "type": "address"
        }
      ],
      "name": "deposit",
      "outputs": [
        {
          "internalType": "uint256",
          "name": "",
          "type": "uint256"
        }
      ],
      "stateMutability": "nonpayable",
      "type": "function"
    },
    {
      "inputs": [
        {
          "internalType": "uint256",
          "name": "_controlVariable",
          "type": "uint256"
        },
        {
          "internalType": "uint256",
          "name": "_vestingTerm",
          "type": "uint256"
        },
        {
          "internalType": "uint256",
          "name": "_minimumPrice",
          "type": "uint256"
        },
        {
          "internalType": "uint256",
          "name": "_maxPayout",
          "type": "uint256"
        },
        {
          "internalType": "uint256",
          "name": "_fee",
          "type": "uint256"
        },
        {
          "internalType": "uint256",
          "name": "_maxDebt",
          "type": "uint256"
        },
        {
          "internalType": "uint256",
          "name": "_initialDebt",
          "type": "uint256"
        }
      ],
      "name": "initializeBondTerms",
      "outputs": [],
      "stateMutability": "nonpayable",
      "type": "function"
    },
    {
      "inputs": [],
      "name": "isLiquidityBond",
      "outputs": [
        {
          "internalType": "bool",
          "name": "",
          "type": "bool"
        }
      ],
      "stateMutability": "view",
      "type": "function"
    },
    {
      "inputs": [],
      "name": "lastDecay",
      "outputs": [
        {
          "internalType": "uint256",
          "name": "",
          "type": "uint256"
        }
      ],
      "stateMutability": "view",
      "type": "function"
    },
    {
      "inputs": [],
      "name": "maxPayout",
      "outputs": [
        {
          "internalType": "uint256",
          "name": "",
          "type": "uint256"
        }
      ],
      "stateMutability": "view",
      "type": "function"
    },
    {
      "inputs": [
        {
          "internalType": "uint256",
          "name": "_value",
          "type": "uint256"
        }
      ],
      "name": "payoutFor",
      "outputs": [
        {
          "internalType": "uint256",
          "name": "",
          "type": "uint256"
        }
      ],
      "stateMutability": "view",
      "type": "function"
    },
    {
      "inputs": [
        {
          "internalType": "address",
          "name": "_depositor",
          "type": "address"
        }
      ],
      "name": "pendingPayoutFor",
      "outputs": [
        {
          "internalType": "uint256",
          "name": "pendingPayout_",
          "type": "uint256"
        }
      ],
      "stateMutability": "view",
      "type": "function"
    },
    {
      "inputs": [
        {
          "internalType": "address",
          "name": "_depositor",
          "type": "address"
        }
      ],
      "name": "percentVestedFor",
      "outputs": [
        {
          "internalType": "uint256",
          "name": "percentVested_",
          "type": "uint256"
        }
      ],
      "stateMutability": "view",
      "type": "function"
    },
    {
      "inputs": [],
      "name": "policy",
      "outputs": [
        {
          "internalType": "address",
          "name": "",
          "type": "address"
        }
      ],
      "stateMutability": "view",
      "type": "function"
    },
    {
      "inputs": [],
      "name": "principle",
      "outputs": [
        {
          "internalType": "address",
          "name": "",
          "type": "address"
        }
      ],
      "stateMutability": "view",
      "type": "function"
    },
    {
      "inputs": [],
      "name": "pullManagement",
      "outputs": [],
      "stateMutability": "nonpayable",
      "type": "function"
    },
    {
      "inputs": [
        {
          "internalType": "address",
          "name": "newOwner_",
          "type": "address"
        }
      ],
      "name": "pushManagement",
      "outputs": [],
      "stateMutability": "nonpayable",
      "type": "function"
    },
    {
      "inputs": [
        {
          "internalType": "address",
          "name": "_token",
          "type": "address"
        }
      ],
      "name": "recoverLostToken",
      "outputs": [
        {
          "internalType": "bool",
          "name": "",
          "type": "bool"
        }
      ],
      "stateMutability": "nonpayable",
      "type": "function"
    },
    {
      "inputs": [
        {
          "internalType": "address",
          "name": "_recipient",
          "type": "address"
        },
        {
          "internalType": "bool",
          "name": "_stake",
          "type": "bool"
        }
      ],
      "name": "redeem",
      "outputs": [
        {
          "internalType": "uint256",
          "name": "",
          "type": "uint256"
        }
      ],
      "stateMutability": "nonpayable",
      "type": "function"
    },
    {
      "inputs": [],
      "name": "renounceManagement",
      "outputs": [],
      "stateMutability": "nonpayable",
      "type": "function"
    },
    {
      "inputs": [
        {
          "internalType": "bool",
          "name": "_addition",
          "type": "bool"
        },
        {
          "internalType": "uint256",
          "name": "_increment",
          "type": "uint256"
        },
        {
          "internalType": "uint256",
          "name": "_target",
          "type": "uint256"
        },
        {
          "internalType": "uint256",
          "name": "_buffer",
          "type": "uint256"
        }
      ],
      "name": "setAdjustment",
      "outputs": [],
      "stateMutability": "nonpayable",
      "type": "function"
    },
    {
      "inputs": [
        {
          "internalType": "enum BondDepository.PARAMETER",
          "name": "_parameter",
          "type": "uint8"
        },
        {
          "internalType": "uint256",
          "name": "_input",
          "type": "uint256"
        }
      ],
      "name": "setBondTerms",
      "outputs": [],
      "stateMutability": "nonpayable",
      "type": "function"
    },
    {
      "inputs": [
        {
          "internalType": "address",
          "name": "_staking",
          "type": "address"
        },
        {
          "internalType": "bool",
          "name": "_useClaim",
          "type": "bool"
        }
      ],
      "name": "setStaking",
      "outputs": [],
      "stateMutability": "nonpayable",
      "type": "function"
    },
    {
      "inputs": [],
      "name": "staking",
      "outputs": [
        {
          "internalType": "address",
          "name": "",
          "type": "address"
        }
      ],
      "stateMutability": "view",
      "type": "function"
    },
    {
      "inputs": [],
      "name": "standardizedDebtRatio",
      "outputs": [
        {
          "internalType": "uint256",
          "name": "",
          "type": "uint256"
        }
      ],
      "stateMutability": "view",
      "type": "function"
    },
    {
      "inputs": [],
      "name": "terms",
      "outputs": [
        {
          "internalType": "uint256",
          "name": "controlVariable",
          "type": "uint256"
        },
        {
          "internalType": "uint256",
          "name": "vestingTerm",
          "type": "uint256"
        },
        {
          "internalType": "uint256",
          "name": "minimumPrice",
          "type": "uint256"
        },
        {
          "internalType": "uint256",
          "name": "maxPayout",
          "type": "uint256"
        },
        {
          "internalType": "uint256",
          "name": "fee",
          "type": "uint256"
        },
        {
          "internalType": "uint256",
          "name": "maxDebt",
          "type": "uint256"
        }
      ],
      "stateMutability": "view",
      "type": "function"
    },
    {
      "inputs": [],
      "name": "totalDebt",
      "outputs": [
        {
          "internalType": "uint256",
          "name": "",
          "type": "uint256"
        }
      ],
      "stateMutability": "view",
      "type": "function"
    },
    {
      "inputs": [],
      "name": "treasury",
      "outputs": [
        {
          "internalType": "address",
          "name": "",
          "type": "address"
        }
      ],
      "stateMutability": "view",
      "type": "function"
    },
    {
      "inputs": [],
      "name": "useClaim",
      "outputs": [
        {
          "internalType": "bool",
          "name": "",
          "type": "bool"
        }
      ],
      "stateMutability": "view",
      "type": "function"
    }
  ],
  "bytecode": "0x6101406040523480156200001257600080fd5b5060405162002b3c38038062002b3c833981810160405260a08110156200003857600080fd5b50805160208201516040808401516060850151608090950151600080546001600160a01b031916331780825593519596949592949391926001600160a01b0392909216917fea8258f2d9ddb679928cf34b78cf645b7feda9acc828e4dd82d014eaae270eba908290a36001600160a01b038516620000b557600080fd5b6001600160601b0319606086901b166080526001600160a01b038416620000db57600080fd5b6001600160601b0319606085901b1660a0526001600160a01b0383166200010157600080fd5b6001600160601b0319606084901b1660c0526001600160a01b0382166200012757600080fd5b6001600160601b0319606092831b811660e0529181901b909116610120526001600160a01b0316151560f81b6101005250505060805160601c60a05160601c60c05160601c60e05160601c6101005160f81c6101205160601c6129136200022960003980610fb3528061176e5280611991525080610f85528061173d5280611b6f5250806115e3528061183752806118de525080610e185280611233528061145552806115375250806105a85280610fe25280611089528061126252806113fc52806114265280611506528061179d528061189c525080610b9252806115c1528061185d52806119df5280611be35280611d785280611e4b52506129136000f3fe608060405234801561001057600080fd5b50600436106102265760003560e01c8063844b5c7c1161012a578063d4d863ce116100bd578063e0176de81161008c578063e75d064611610071578063e75d06461461058e578063f5c2ab5b14610596578063fc7b9c181461059e57610226565b8063e0176de81461057e578063e392a2621461058657610226565b8063d4d863ce14610505578063d502562514610533578063d79690601461056e578063d7ccfb0b1461057657610226565b8063b4abccba116100f9578063b4abccba1461046f578063c5332b7c146104a9578063cd1234b3146104b1578063cea55f57146104fd57610226565b8063844b5c7c146104255780638dbdbe6d1461042d578063904b3ece1461045f57806398fabd3a1461046757610226565b8063451ee4a1116101bd5780635a96ac0a1161018c578063715350081161017157806371535008146103bf578063759076e5146104005780637927ebf81461040857610226565b80635a96ac0a146103af57806361d027b3146103b757610226565b8063451ee4a11461032657806346f68ee91461035b5780634cf088d914610381578063507930ec1461038957610226565b80631a3d0068116101f95780631a3d0068146102995780631e321a0f146102ca5780631feed31f146102f0578063226d96341461031e57610226565b8063016a42841461022b57806301b88ee81461024f5780630505c8c914610287578063089208d81461028f575b600080fd5b6102336105a6565b604080516001600160a01b039092168252519081900360200190f35b6102756004803603602081101561026557600080fd5b50356001600160a01b03166105ca565b60408051918252519081900360200190f35b610233610623565b610297610633565b005b610297600480360360808110156102af57600080fd5b508035151590602081013590604081013590606001356106dc565b610297600480360360408110156102e057600080fd5b5060ff81351690602001356107f0565b6102756004803603604081101561030657600080fd5b506001600160a01b038135169060200135151561099b565b610233610b90565b61032e610bb4565b60408051951515865260208601949094528484019290925260608401526080830152519081900360a00190f35b6102976004803603602081101561037157600080fd5b50356001600160a01b0316610bcc565b610233610ccb565b6102756004803603602081101561039f57600080fd5b50356001600160a01b0316610cda565b610297610d6c565b610233610e16565b610297600480360360e08110156103d557600080fd5b5080359060208101359060408101359060608101359060808101359060a08101359060c00135610e3a565b610275610f40565b6102756004803603602081101561041e57600080fd5b5035610f5b565b610275610f81565b6102756004803603606081101561044357600080fd5b50803590602081013590604001356001600160a01b031661111a565b610275611739565b610233611835565b6104956004803603602081101561048557600080fd5b50356001600160a01b0316611859565b604080519115158252519081900360200190f35b61023361198f565b6104d7600480360360208110156104c757600080fd5b50356001600160a01b03166119b3565b604080519485526020850193909352838301919091526060830152519081900360800190f35b6102756119da565b6102976004803603604081101561051b57600080fd5b506001600160a01b0381351690602001351515611a92565b61053b611b58565b604080519687526020870195909552858501939093526060850191909152608084015260a0830152519081900360c00190f35b610495611b6d565b610275611b91565b610275611bd0565b610275611c6c565b610495611cb1565b610275611cc1565b610275611cc7565b7f000000000000000000000000000000000000000000000000000000000000000081565b6000806105d683610cda565b6001600160a01b0384166000908152600e602052604090205490915061271082106106035780925061061c565b6106196127106106138385611ccd565b90611d2d565b92505b5050919050565b6000546001600160a01b03165b90565b6000546001600160a01b03163314610692576040805162461bcd60e51b815260206004820181905260248201527f4f776e61626c653a2063616c6c6572206973206e6f7420746865206f776e6572604482015290519081900360640190fd5b600080546040516001600160a01b03909116907fea8258f2d9ddb679928cf34b78cf645b7feda9acc828e4dd82d014eaae270eba908390a3600080546001600160a01b0319169055565b6000546001600160a01b0316331461073b576040805162461bcd60e51b815260206004820181905260248201527f4f776e61626c653a2063616c6c6572206973206e6f7420746865206f776e6572604482015290519081900360640190fd5b600354610751906103e890610613906019611ccd565b8311156107a5576040805162461bcd60e51b815260206004820152601360248201527f496e6372656d656e7420746f6f206c6172676500000000000000000000000000604482015290519081900360640190fd5b6040805160a08101825294151580865260208601859052908501839052606085018290524360809095018590526009805460ff19169091179055600a92909255600b55600c55600d55565b6000546001600160a01b0316331461084f576040805162461bcd60e51b815260206004820181905260248201527f4f776e61626c653a2063616c6c6572206973206e6f7420746865206f776e6572604482015290519081900360640190fd5b600082600581111561085d57fe5b14156108ae576127108110156108a45760405162461bcd60e51b81526004018080602001828103825260248152602001806128e36024913960400191505060405180910390fd5b6004819055610997565b60018260058111156108bc57fe5b14156108cc576006819055610997565b60028260058111156108da57fe5b141561094157612710811115610937576040805162461bcd60e51b815260206004820152601c60248201527f44414f206665652063616e6e6f7420657863656564207061796f757400000000604482015290519081900360640190fd5b6007819055610997565b600382600581111561094f57fe5b141561095f576008819055610997565b600482600581111561096d57fe5b141561097d576005819055610997565b600582600581111561098b57fe5b14156109975760038190555b5050565b60006109a56127f6565b506001600160a01b0383166000908152600e60209081526040808320815160808101835281548152600182015493810193909352600281015491830191909152600301546060820152906109f885610cda565b90506127108110610a88576001600160a01b0385166000818152600e602090815260408083208381556001810184905560028101849055600301839055855181519081529182019290925281517f51c99f515c87b0d95ba97f616edd182e8f161c4932eac17c6fefe9dab58b77b1929181900390910190a2610a7f85858460000151611d6f565b92505050610b8a565b8151600090610a9f90612710906106139085611ccd565b90506040518060800160405280610ac3838660000151611f5d90919063ffffffff16565b8152602001610aed610ae2866040015143611f5d90919063ffffffff16565b602087015190611f5d565b8152436020808301919091526060808701516040938401526001600160a01b038a166000818152600e84528490208551808255868501516001830155868601516002830155959092015160039092019190915582518581529182019390935281517f51c99f515c87b0d95ba97f616edd182e8f161c4932eac17c6fefe9dab58b77b1929181900390910190a2610b84868683611d6f565b93505050505b92915050565b7f000000000000000000000000000000000000000000000000000000000000000081565b600954600a54600b54600c54600d5460ff9094169385565b6000546001600160a01b03163314610c2b576040805162461bcd60e51b815260206004820181905260248201527f4f776e61626c653a2063616c6c6572206973206e6f7420746865206f776e6572604482015290519081900360640190fd5b6001600160a01b038116610c705760405162461bcd60e51b81526004018080602001828103825260268152602001806128316026913960400191505060405180910390fd5b600080546040516001600160a01b03808516939216917fea8258f2d9ddb679928cf34b78cf645b7feda9acc828e4dd82d014eaae270eba91a3600180546001600160a01b0319166001600160a01b0392909216919091179055565b6002546001600160a01b031681565b6000610ce46127f6565b506001600160a01b0382166000908152600e602090815260408083208151608081018352815481526001820154938101939093526002810154918301829052600301546060830152909190610d3a904390611f5d565b60208301519091508015610d5f57610d588161061384612710611ccd565b9350610d64565b600093505b505050919050565b6001546001600160a01b03163314610db55760405162461bcd60e51b81526004018080602001828103825260228152602001806128576022913960400191505060405180910390fd5b600154600080546040516001600160a01b0393841693909116917faa151555690c956fc3ea32f106bb9f119b5237a061eaa8557cff3e51e3792c8d91a3600154600080546001600160a01b0319166001600160a01b03909216919091179055565b7f000000000000000000000000000000000000000000000000000000000000000081565b6000546001600160a01b03163314610e99576040805162461bcd60e51b815260206004820181905260248201527f4f776e61626c653a2063616c6c6572206973206e6f7420746865206f776e6572604482015290519081900360640190fd5b60035415610eee576040805162461bcd60e51b815260206004820181905260248201527f426f6e6473206d75737420626520696e697469616c697a65642066726f6d2030604482015290519081900360640190fd5b6040805160c08101825288815260208101889052908101869052606081018590526080810184905260a001829052600396909655600494909455600592909255600655600755600855600f5543601055565b6000610f56610f4d611c6c565b600f5490611f5d565b905090565b6000610b8a662386f26fc10000610613610f7c85610f77611b91565b611f9f565b612121565b60007f00000000000000000000000000000000000000000000000000000000000000001561107f5761107860646106137f00000000000000000000000000000000000000000000000000000000000000006001600160a01b03166332da80a37f00000000000000000000000000000000000000000000000000000000000000006040518263ffffffff1660e01b815260040180826001600160a01b0316815260200191505060206040518083038186803b15801561103e57600080fd5b505afa158015611052573d6000803e3d6000fd5b505050506040513d602081101561106857600080fd5b5051611072611b91565b90611ccd565b9050610630565b610f5660646106137f00000000000000000000000000000000000000000000000000000000000000006001600160a01b031663313ce5676040518163ffffffff1660e01b815260040160206040518083038186803b1580156110e057600080fd5b505afa1580156110f4573d6000803e3d6000fd5b505050506040513d602081101561110a57600080fd5b505160ff16600a0a611072611b91565b60006001600160a01b038216611177576040805162461bcd60e51b815260206004820152600f60248201527f496e76616c696420616464726573730000000000000000000000000000000000604482015290519081900360640190fd5b61117f612139565b600854600f5411156111d8576040805162461bcd60e51b815260206004820152601460248201527f4d61782063617061636974792072656163686564000000000000000000000000604482015290519081900360640190fd5b60006111e2610f81565b905060006111ee61214d565b90508085101561122f5760405162461bcd60e51b81526004018080602001828103825260238152602001806128c06023913960400191505060405180910390fd5b60007f00000000000000000000000000000000000000000000000000000000000000006001600160a01b0316631eec5a9a7f0000000000000000000000000000000000000000000000000000000000000000896040518363ffffffff1660e01b815260040180836001600160a01b031681526020018281526020019250505060206040518083038186803b1580156112c657600080fd5b505afa1580156112da573d6000803e3d6000fd5b505050506040513d60208110156112f057600080fd5b5051905060006112ff82610f5b565b905062989680811015611359576040805162461bcd60e51b815260206004820152600e60248201527f426f6e6420746f6f20736d616c6c000000000000000000000000000000000000604482015290519081900360640190fd5b611361611bd0565b8111156113b5576040805162461bcd60e51b815260206004820152600e60248201527f426f6e6420746f6f206c61726765000000000000000000000000000000000000604482015290519081900360640190fd5b60006113d561271061061360036004015485611ccd90919063ffffffff16565b905060006113ed826113e78686611f5d565b90611f5d565b90506114246001600160a01b037f00000000000000000000000000000000000000000000000000000000000000001633308d61218f565b7f00000000000000000000000000000000000000000000000000000000000000006001600160a01b031663095ea7b37f00000000000000000000000000000000000000000000000000000000000000008c6040518363ffffffff1660e01b815260040180836001600160a01b0316815260200182815260200192505050602060405180830381600087803b1580156114bb57600080fd5b505af11580156114cf573d6000803e3d6000fd5b505050506040513d60208110156114e557600080fd5b50506040805163bc157ac160e01b8152600481018c90526001600160a01b037f0000000000000000000000000000000000000000000000000000000000000000811660248301526044820184905291517f00000000000000000000000000000000000000000000000000000000000000009092169163bc157ac1916064808201926020929091908290030181600087803b15801561158257600080fd5b505af1158015611596573d6000803e3d6000fd5b505050506040513d60208110156115ac57600080fd5b50508115611608576116086001600160a01b037f0000000000000000000000000000000000000000000000000000000000000000167f000000000000000000000000000000000000000000000000000000000000000084612302565b600f54611615908561246c565b600f55604080516080810182526001600160a01b038a166000908152600e60205291909120548190611647908661246c565b81526004805460208084019190915243604080850182905260609485018c90526001600160a01b038e166000908152600e845281902086518155928601516001840155850151600283015593909201516003909201919091555487916116ac9161246c565b604080518d8152905186917f1fec6dc81f140574bf43f6b1e420ae1dd47928b9d57db8cbd7b8611063b85ae5919081900360200190a46116ea6119da565b6116f261214d565b6116fa610f81565b6040517f375b221f40939bfd8f49723a17cf7bc6d576ebf72efe2cc3e991826f5b3f390a90600090a461172b6124c6565b509098975050505050505050565b60007f00000000000000000000000000000000000000000000000000000000000000001561182d57611078633b9aca006106137f00000000000000000000000000000000000000000000000000000000000000006001600160a01b03166332da80a37f00000000000000000000000000000000000000000000000000000000000000006040518263ffffffff1660e01b815260040180826001600160a01b0316815260200191505060206040518083038186803b1580156117f957600080fd5b505afa15801561180d573d6000803e3d6000fd5b505050506040513d602081101561182357600080fd5b50516110726119da565b6110786119da565b7f000000000000000000000000000000000000000000000000000000000000000081565b60007f00000000000000000000000000000000000000000000000000000000000000006001600160a01b0316826001600160a01b0316141561189a57600080fd5b7f00000000000000000000000000000000000000000000000000000000000000006001600160a01b0316826001600160a01b031614156118d957600080fd5b6119877f0000000000000000000000000000000000000000000000000000000000000000836001600160a01b03166370a08231306040518263ffffffff1660e01b815260040180826001600160a01b0316815260200191505060206040518083038186803b15801561194a57600080fd5b505afa15801561195e573d6000803e3d6000fd5b505050506040513d602081101561197457600080fd5b50516001600160a01b0385169190612302565b506001919050565b7f000000000000000000000000000000000000000000000000000000000000000081565b600e6020526000908152604090208054600182015460028301546003909301549192909184565b6000807f00000000000000000000000000000000000000000000000000000000000000006001600160a01b03166318160ddd6040518163ffffffff1660e01b815260040160206040518083038186803b158015611a3657600080fd5b505afa158015611a4a573d6000803e3d6000fd5b505050506040513d6020811015611a6057600080fd5b50519050611a8c670de0b6b3a7640000610613610f7c611a86633b9aca00611072610f40565b85611f9f565b91505090565b6000546001600160a01b03163314611af1576040805162461bcd60e51b815260206004820181905260248201527f4f776e61626c653a2063616c6c6572206973206e6f7420746865206f776e6572604482015290519081900360640190fd5b6001600160a01b038216611b0457600080fd5b600280547fffffffffffffffffffffff00ffffffffffffffffffffffffffffffffffffffff16600160a01b92151592909202919091176001600160a01b0319166001600160a01b0392909216919091179055565b60035460045460055460065460075460085486565b7f000000000000000000000000000000000000000000000000000000000000000081565b6000611bbc62989680610613633b9aca00611bb6611bad6119da565b60035490611ccd565b9061246c565b600554909150811015610630575060055490565b6000610f56620186a061061360038001547f00000000000000000000000000000000000000000000000000000000000000006001600160a01b03166318160ddd6040518163ffffffff1660e01b815260040160206040518083038186803b158015611c3a57600080fd5b505afa158015611c4e573d6000803e3d6000fd5b505050506040513d6020811015611c6457600080fd5b505190611ccd565b600080611c8460105443611f5d90919063ffffffff16565b600454600f54919250611c9b916106139084611ccd565b9150600f54821115611cad57600f5491505b5090565b600254600160a01b900460ff1681565b60105481565b600f5481565b600082611cdc57506000610b8a565b82820282848281611ce957fe5b0414611d265760405162461bcd60e51b815260040180806020018281038252602181526020018061289f6021913960400191505060405180910390fd5b9392505050565b6000611d2683836040518060400160405280601a81526020017f536166654d6174683a206469766973696f6e206279207a65726f0000000000008152506125a6565b600082611e1f577f00000000000000000000000000000000000000000000000000000000000000006001600160a01b031663a9059cbb85846040518363ffffffff1660e01b815260040180836001600160a01b0316815260200182815260200192505050602060405180830381600087803b158015611ded57600080fd5b505af1158015611e01573d6000803e3d6000fd5b505050506040513d6020811015611e1757600080fd5b50611f569050565b6002546040805163095ea7b360e01b81526001600160a01b0392831660048201526024810185905290517f00000000000000000000000000000000000000000000000000000000000000009092169163095ea7b3916044808201926020929091908290030181600087803b158015611e9657600080fd5b505af1158015611eaa573d6000803e3d6000fd5b505050506040513d6020811015611ec057600080fd5b50506002546040805163995846bd60e01b81526001600160a01b0387811660048301526024820186905260ff600160a01b850416151560448301529151919092169163995846bd9160648083019260209291908290030181600087803b158015611f2957600080fd5b505af1158015611f3d573d6000803e3d6000fd5b505050506040513d6020811015611f5357600080fd5b50505b5092915050565b6000611d2683836040518060400160405280601e81526020017f536166654d6174683a207375627472616374696f6e206f766572666c6f77000081525061265f565b611fa761281e565b60008211611fe65760405162461bcd60e51b81526004018080602001828103825260268152602001806128796026913960400191505060405180910390fd5b826120005750604080516020810190915260008152610b8a565b71ffffffffffffffffffffffffffffffffffff83116120a757600082607085901b8161202857fe5b0490506001600160e01b03811115612087576040805162461bcd60e51b815260206004820152601e60248201527f4669786564506f696e743a3a6672616374696f6e3a206f766572666c6f770000604482015290519081900360640190fd5b6040518060200160405280826001600160e01b0316815250915050610b8a565b60006120c3846e010000000000000000000000000000856126b9565b90506001600160e01b03811115612087576040805162461bcd60e51b815260206004820152601e60248201527f4669786564506f696e743a3a6672616374696f6e3a206f766572666c6f770000604482015290519081900360640190fd5b516612725dd1d243ab6001600160e01b039091160490565b612144610f4d611c6c565b600f5543601055565b600061216962989680610613633b9aca00611bb6611bad6119da565b60055490915081101561217f5750600554610630565b6005541561063057600060055590565b604080516001600160a01b0385811660248301528481166044830152606480830185905283518084039091018152608490920183526020820180516001600160e01b03166323b872dd60e01b17815292518251600094606094938a169392918291908083835b602083106122145780518252601f1990920191602091820191016121f5565b6001836020036101000a0380198251168184511680821785525050505050509050019150506000604051808303816000865af19150503d8060008114612276576040519150601f19603f3d011682016040523d82523d6000602084013e61227b565b606091505b50915091508180156122a95750805115806122a957508080602001905160208110156122a657600080fd5b50515b6122fa576040805162461bcd60e51b815260206004820152601460248201527f5452414e534645525f46524f4d5f4641494c4544000000000000000000000000604482015290519081900360640190fd5b505050505050565b604080516001600160a01b038481166024830152604480830185905283518084039091018152606490920183526020820180516001600160e01b031663a9059cbb60e01b178152925182516000946060949389169392918291908083835b6020831061237f5780518252601f199092019160209182019101612360565b6001836020036101000a0380198251168184511680821785525050505050509050019150506000604051808303816000865af19150503d80600081146123e1576040519150601f19603f3d011682016040523d82523d6000602084013e6123e6565b606091505b5091509150818015612414575080511580612414575080806020019051602081101561241157600080fd5b50515b612465576040805162461bcd60e51b815260206004820152600f60248201527f5452414e534645525f4641494c45440000000000000000000000000000000000604482015290519081900360640190fd5b5050505050565b600082820183811015611d26576040805162461bcd60e51b815260206004820152601b60248201527f536166654d6174683a206164646974696f6e206f766572666c6f770000000000604482015290519081900360640190fd5b600c54600d546000916124d9919061246c565b600a54909150158015906124ed5750804310155b156125a35760035460095460ff161561252757600a5460035461250f9161246c565b6003819055600b5411612522576000600a555b612549565b600a5460035461253691611f5d565b6003819055600b5410612549576000600a555b43600d55600354600a546009546040805185815260208101949094528381019290925260ff1615156060830152517fb923e581a0f83128e9e1d8297aa52b18d6744310476e0b54509c054cd7a93b2a9181900360800190a1505b50565b600081836126325760405162461bcd60e51b81526004018080602001828103825283818151815260200191508051906020019080838360005b838110156125f75781810151838201526020016125df565b50505050905090810190601f1680156126245780820380516001836020036101000a031916815260200191505b509250505060405180910390fd5b50600083858161263e57fe5b04905083858161264a57fe5b0681850201851461265757fe5b949350505050565b600081848411156126b15760405162461bcd60e51b81526020600482018181528351602484015283519092839260449091019190850190808383600083156125f75781810151838201526020016125df565b505050900390565b60008060006126c88686612759565b91509150600084806126d657fe5b8688099050828111156126ea576001820391505b8083039250848210612743576040805162461bcd60e51b815260206004820152601a60248201527f46756c6c4d6174683a3a6d756c4469763a206f766572666c6f77000000000000604482015290519081900360640190fd5b61274e838387612786565b979650505050505050565b600080806000198486099050838502925082810391508281101561277e576001820391505b509250929050565b6000818103821680838161279657fe5b0492508085816127a257fe5b0494508081600003816127b157fe5b60028581038087028203028087028203028087028203028087028203028087028203028087028203029586029003909402930460010193909302939093010292915050565b6040518060800160405280600081526020016000815260200160008152602001600081525090565b6040805160208101909152600081529056fe4f776e61626c653a206e6577206f776e657220697320746865207a65726f20616464726573734f776e61626c653a206d757374206265206e6577206f776e657220746f2070756c6c4669786564506f696e743a3a6672616374696f6e3a206469766973696f6e206279207a65726f536166654d6174683a206d756c7469706c69636174696f6e206f766572666c6f77536c697070616765206c696d69743a206d6f7265207468616e206d617820707269636556657374696e67206d757374206265206c6f6e676572207468616e20333620686f757273a164736f6c6343000705000a",
  "linkReferences": {},
  "deployedLinkReferences": {}
}