{
  "_format": "hh-sol-artifact-1",
  "contractName": "BondDepositoryWFTM",
  "sourceName": "contracts/BondDepositoryWFTM.sol",
  "abi": [
    {
      "inputs": [
        {
          "internalType": "address",
          "name": "_SDAO",
          "type": "address"
        },
        {
          "internalType": "address",
          "name": "_principle",
          "type": "address"
        },
        {
          "internalType": "address",
          "name": "_treasury",
          "type": "address"
        },
        {
          "internalType": "address",
          "name": "_DAO",
          "type": "address"
        },
        {
          "internalType": "address",
          "name": "_feed",
          "type": "address"
        }
      ],
      "stateMutability": "nonpayable",
      "type": "constructor"
    },
    {
      "anonymous": false,
      "inputs": [
        {
          "indexed": false,
          "internalType": "uint256",
          "name": "deposit",
          "type": "uint256"
        },
        {
          "indexed": true,
          "internalType": "uint256",
          "name": "payout",
          "type": "uint256"
        },
        {
          "indexed": true,
          "internalType": "uint256",
          "name": "expires",
          "type": "uint256"
        },
        {
          "indexed": true,
          "internalType": "uint256",
          "name": "priceInUSD",
          "type": "uint256"
        }
      ],
      "name": "BondCreated",
      "type": "event"
    },
    {
      "anonymous": false,
      "inputs": [
        {
          "indexed": true,
          "internalType": "uint256",
          "name": "priceInUSD",
          "type": "uint256"
        },
        {
          "indexed": true,
          "internalType": "uint256",
          "name": "internalPrice",
          "type": "uint256"
        },
        {
          "indexed": true,
          "internalType": "uint256",
          "name": "debtRatio",
          "type": "uint256"
        }
      ],
      "name": "BondPriceChanged",
      "type": "event"
    },
    {
      "anonymous": false,
      "inputs": [
        {
          "indexed": true,
          "internalType": "address",
          "name": "recipient",
          "type": "address"
        },
        {
          "indexed": false,
          "internalType": "uint256",
          "name": "payout",
          "type": "uint256"
        },
        {
          "indexed": false,
          "internalType": "uint256",
          "name": "remaining",
          "type": "uint256"
        }
      ],
      "name": "BondRedeemed",
      "type": "event"
    },
    {
      "anonymous": false,
      "inputs": [
        {
          "indexed": false,
          "internalType": "uint256",
          "name": "initialBCV",
          "type": "uint256"
        },
        {
          "indexed": false,
          "internalType": "uint256",
          "name": "newBCV",
          "type": "uint256"
        },
        {
          "indexed": false,
          "internalType": "uint256",
          "name": "adjustment",
          "type": "uint256"
        },
        {
          "indexed": false,
          "internalType": "bool",
          "name": "addition",
          "type": "bool"
        }
      ],
      "name": "ControlVariableAdjustment",
      "type": "event"
    },
    {
      "anonymous": false,
      "inputs": [
        {
          "indexed": true,
          "internalType": "address",
          "name": "previousOwner",
          "type": "address"
        },
        {
          "indexed": true,
          "internalType": "address",
          "name": "newOwner",
          "type": "address"
        }
      ],
      "name": "OwnershipPulled",
      "type": "event"
    },
    {
      "anonymous": false,
      "inputs": [
        {
          "indexed": true,
          "internalType": "address",
          "name": "previousOwner",
          "type": "address"
        },
        {
          "indexed": true,
          "internalType": "address",
          "name": "newOwner",
          "type": "address"
        }
      ],
      "name": "OwnershipPushed",
      "type": "event"
    },
    {
      "inputs": [],
      "name": "DAO",
      "outputs": [
        {
          "internalType": "address",
          "name": "",
          "type": "address"
        }
      ],
      "stateMutability": "view",
      "type": "function"
    },
    {
      "inputs": [],
      "name": "SDAO",
      "outputs": [
        {
          "internalType": "address",
          "name": "",
          "type": "address"
        }
      ],
      "stateMutability": "view",
      "type": "function"
    },
    {
      "inputs": [],
      "name": "_newOwner",
      "outputs": [
        {
          "internalType": "address",
          "name": "",
          "type": "address"
        }
      ],
      "stateMutability": "view",
      "type": "function"
    },
    {
      "inputs": [],
      "name": "_owner",
      "outputs": [
        {
          "internalType": "address",
          "name": "",
          "type": "address"
        }
      ],
      "stateMutability": "view",
      "type": "function"
    },
    {
      "inputs": [],
      "name": "adjustment",
      "outputs": [
        {
          "internalType": "bool",
          "name": "add",
          "type": "bool"
        },
        {
          "internalType": "uint256",
          "name": "rate",
          "type": "uint256"
        },
        {
          "internalType": "uint256",
          "name": "target",
          "type": "uint256"
        },
        {
          "internalType": "uint256",
          "name": "buffer",
          "type": "uint256"
        },
        {
          "internalType": "uint256",
          "name": "lastBlock",
          "type": "uint256"
        }
      ],
      "stateMutability": "view",
      "type": "function"
    },
    {
      "inputs": [],
      "name": "assetPrice",
      "outputs": [
        {
          "internalType": "int256",
          "name": "",
          "type": "int256"
        }
      ],
      "stateMutability": "view",
      "type": "function"
    },
    {
      "inputs": [
        {
          "internalType": "address",
          "name": "",
          "type": "address"
        }
      ],
      "name": "bondInfo",
      "outputs": [
        {
          "internalType": "uint256",
          "name": "payout",
          "type": "uint256"
        },
        {
          "internalType": "uint256",
          "name": "vesting",
          "type": "uint256"
        },
        {
          "internalType": "uint256",
          "name": "lastBlock",
          "type": "uint256"
        },
        {
          "internalType": "uint256",
          "name": "pricePaid",
          "type": "uint256"
        }
      ],
      "stateMutability": "view",
      "type": "function"
    },
    {
      "inputs": [],
      "name": "bondPrice",
      "outputs": [
        {
          "internalType": "uint256",
          "name": "price_",
          "type": "uint256"
        }
      ],
      "stateMutability": "view",
      "type": "function"
    },
    {
      "inputs": [],
      "name": "bondPriceInUSD",
      "outputs": [
        {
          "internalType": "uint256",
          "name": "price_",
          "type": "uint256"
        }
      ],
      "stateMutability": "view",
      "type": "function"
    },
    {
      "inputs": [],
      "name": "currentDebt",
      "outputs": [
        {
          "internalType": "uint256",
          "name": "",
          "type": "uint256"
        }
      ],
      "stateMutability": "view",
      "type": "function"
    },
    {
      "inputs": [],
      "name": "debtDecay",
      "outputs": [
        {
          "internalType": "uint256",
          "name": "decay_",
          "type": "uint256"
        }
      ],
      "stateMutability": "view",
      "type": "function"
    },
    {
      "inputs": [],
      "name": "debtRatio",
      "outputs": [
        {
          "internalType": "uint256",
          "name": "debtRatio_",
          "type": "uint256"
        }
      ],
      "stateMutability": "view",
      "type": "function"
    },
    {
      "inputs": [
        {
          "internalType": "uint256",
          "name": "_amount",
          "type": "uint256"
        },
        {
          "internalType": "uint256",
          "name": "_maxPrice",
          "type": "uint256"
        },
        {
          "internalType": "address",
          "name": "_depositor",
          "type": "address"
        }
      ],
      "name": "deposit",
      "outputs": [
        {
          "internalType": "uint256",
          "name": "",
          "type": "uint256"
        }
      ],
      "stateMutability": "nonpayable",
      "type": "function"
    },
    {
      "inputs": [
        {
          "internalType": "uint256",
          "name": "_controlVariable",
          "type": "uint256"
        },
        {
          "internalType": "uint256",
          "name": "_vestingTerm",
          "type": "uint256"
        },
        {
          "internalType": "uint256",
          "name": "_minimumPrice",
          "type": "uint256"
        },
        {
          "internalType": "uint256",
          "name": "_maxPayout",
          "type": "uint256"
        },
        {
          "internalType": "uint256",
          "name": "_maxDebt",
          "type": "uint256"
        },
        {
          "internalType": "uint256",
          "name": "_initialDebt",
          "type": "uint256"
        }
      ],
      "name": "initializeBondTerms",
      "outputs": [],
      "stateMutability": "nonpayable",
      "type": "function"
    },
    {
      "inputs": [],
      "name": "lastDecay",
      "outputs": [
        {
          "internalType": "uint256",
          "name": "",
          "type": "uint256"
        }
      ],
      "stateMutability": "view",
      "type": "function"
    },
    {
      "inputs": [],
      "name": "maxPayout",
      "outputs": [
        {
          "internalType": "uint256",
          "name": "",
          "type": "uint256"
        }
      ],
      "stateMutability": "view",
      "type": "function"
    },
    {
      "inputs": [
        {
          "internalType": "uint256",
          "name": "_value",
          "type": "uint256"
        }
      ],
      "name": "payoutFor",
      "outputs": [
        {
          "internalType": "uint256",
          "name": "",
          "type": "uint256"
        }
      ],
      "stateMutability": "view",
      "type": "function"
    },
    {
      "inputs": [
        {
          "internalType": "address",
          "name": "_depositor",
          "type": "address"
        }
      ],
      "name": "pendingPayoutFor",
      "outputs": [
        {
          "internalType": "uint256",
          "name": "pendingPayout_",
          "type": "uint256"
        }
      ],
      "stateMutability": "view",
      "type": "function"
    },
    {
      "inputs": [
        {
          "internalType": "address",
          "name": "_depositor",
          "type": "address"
        }
      ],
      "name": "percentVestedFor",
      "outputs": [
        {
          "internalType": "uint256",
          "name": "percentVested_",
          "type": "uint256"
        }
      ],
      "stateMutability": "view",
      "type": "function"
    },
    {
      "inputs": [],
      "name": "principle",
      "outputs": [
        {
          "internalType": "address",
          "name": "",
          "type": "address"
        }
      ],
      "stateMutability": "view",
      "type": "function"
    },
    {
      "inputs": [],
      "name": "pullManagement",
      "outputs": [],
      "stateMutability": "nonpayable",
      "type": "function"
    },
    {
      "inputs": [
        {
          "internalType": "address",
          "name": "newOwner_",
          "type": "address"
        }
      ],
      "name": "pushManagement",
      "outputs": [],
      "stateMutability": "nonpayable",
      "type": "function"
    },
    {
      "inputs": [
        {
          "internalType": "address",
          "name": "_token",
          "type": "address"
        }
      ],
      "name": "recoverLostToken",
      "outputs": [
        {
          "internalType": "bool",
          "name": "",
          "type": "bool"
        }
      ],
      "stateMutability": "nonpayable",
      "type": "function"
    },
    {
      "inputs": [
        {
          "internalType": "address",
          "name": "_recipient",
          "type": "address"
        },
        {
          "internalType": "bool",
          "name": "_stake",
          "type": "bool"
        }
      ],
      "name": "redeem",
      "outputs": [
        {
          "internalType": "uint256",
          "name": "",
          "type": "uint256"
        }
      ],
      "stateMutability": "nonpayable",
      "type": "function"
    },
    {
      "inputs": [],
      "name": "renounceManagement",
      "outputs": [],
      "stateMutability": "nonpayable",
      "type": "function"
    },
    {
      "inputs": [
        {
          "internalType": "bool",
          "name": "_addition",
          "type": "bool"
        },
        {
          "internalType": "uint256",
          "name": "_increment",
          "type": "uint256"
        },
        {
          "internalType": "uint256",
          "name": "_target",
          "type": "uint256"
        },
        {
          "internalType": "uint256",
          "name": "_buffer",
          "type": "uint256"
        }
      ],
      "name": "setAdjustment",
      "outputs": [],
      "stateMutability": "nonpayable",
      "type": "function"
    },
    {
      "inputs": [
        {
          "internalType": "enum BondDepositoryWFTM.PARAMETER",
          "name": "_parameter",
          "type": "uint8"
        },
        {
          "internalType": "uint256",
          "name": "_input",
          "type": "uint256"
        }
      ],
      "name": "setBondTerms",
      "outputs": [],
      "stateMutability": "nonpayable",
      "type": "function"
    },
    {
      "inputs": [
        {
          "internalType": "address",
          "name": "_staking",
          "type": "address"
        },
        {
          "internalType": "bool",
          "name": "_useClaim",
          "type": "bool"
        }
      ],
      "name": "setStaking",
      "outputs": [],
      "stateMutability": "nonpayable",
      "type": "function"
    },
    {
      "inputs": [],
      "name": "staking",
      "outputs": [
        {
          "internalType": "address",
          "name": "",
          "type": "address"
        }
      ],
      "stateMutability": "view",
      "type": "function"
    },
    {
      "inputs": [],
      "name": "standardizedDebtRatio",
      "outputs": [
        {
          "internalType": "uint256",
          "name": "",
          "type": "uint256"
        }
      ],
      "stateMutability": "view",
      "type": "function"
    },
    {
      "inputs": [],
      "name": "terms",
      "outputs": [
        {
          "internalType": "uint256",
          "name": "controlVariable",
          "type": "uint256"
        },
        {
          "internalType": "uint256",
          "name": "vestingTerm",
          "type": "uint256"
        },
        {
          "internalType": "uint256",
          "name": "minimumPrice",
          "type": "uint256"
        },
        {
          "internalType": "uint256",
          "name": "maxPayout",
          "type": "uint256"
        },
        {
          "internalType": "uint256",
          "name": "maxDebt",
          "type": "uint256"
        }
      ],
      "stateMutability": "view",
      "type": "function"
    },
    {
      "inputs": [],
      "name": "totalDebt",
      "outputs": [
        {
          "internalType": "uint256",
          "name": "",
          "type": "uint256"
        }
      ],
      "stateMutability": "view",
      "type": "function"
    },
    {
      "inputs": [],
      "name": "treasury",
      "outputs": [
        {
          "internalType": "address",
          "name": "",
          "type": "address"
        }
      ],
      "stateMutability": "view",
      "type": "function"
    },
    {
      "inputs": [],
      "name": "useClaim",
      "outputs": [
        {
          "internalType": "bool",
          "name": "",
          "type": "bool"
        }
      ],
      "stateMutability": "view",
      "type": "function"
    }
  ],
  "bytecode": "0x6101006040523480156200001257600080fd5b506040516200264f3803806200264f833981810160405260a08110156200003857600080fd5b50805160208201516040808401516060850151608090950151600080546001600160a01b031916331780825593519596949592949391926001600160a01b0392909216917fea8258f2d9ddb679928cf34b78cf645b7feda9acc828e4dd82d014eaae270eba908290a36001600160a01b038516620000b557600080fd5b6001600160601b0319606086901b166080526001600160a01b038416620000db57600080fd5b6001600160601b0319606085901b1660a0526001600160a01b0383166200010157600080fd5b6001600160601b0319606084901b1660c0526001600160a01b0382166200012757600080fd5b6001600160601b0319606083901b1660e0526001600160a01b0381166200014d57600080fd5b600280546001600160a01b039092166001600160a01b03199092169190911790555050505060805160601c60a05160601c60c05160601c60e05160601c612464620001eb600039806113bb5280611471525080610d61528061101052806111c2528061120e52508061059a528061103f528061119f528061142f525080610da152806113f0528061155d52806117c1528061195652506124646000f3fe608060405234801561001057600080fd5b50600436106102265760003560e01c80638dbdbe6d1161012a578063d24378eb116100bd578063e0176de81161008c578063e75d064611610071578063e75d064614610580578063f5c2ab5b14610588578063fc7b9c181461059057610226565b8063e0176de814610570578063e392a2621461057857610226565b8063d24378eb146104ff578063d4d863ce14610507578063d502562514610535578063d7ccfb0b1461056857610226565b8063b4abccba116100f9578063b4abccba14610469578063b74908fe146104a3578063cd1234b3146104ab578063cea55f57146104f757610226565b80638dbdbe6d1461041f578063904b3ece1461045157806398fabd3a14610459578063b2bdfa7b1461046157610226565b80634cf088d9116101bd578063759076e51161018c5780637927ebf8116101715780637927ebf8146103bf5780637b261727146103dc578063844b5c7c1461041757610226565b8063759076e5146103af57806375f24be5146103b757610226565b80634cf088d914610371578063507930ec146103795780635a96ac0a1461039f57806361d027b3146103a757610226565b80631e321a0f116101f95780631e321a0f146102c25780631feed31f146102e8578063451ee4a11461031657806346f68ee91461034b57610226565b8063016a42841461022b57806301b88ee81461024f578063089208d8146102875780631a3d006814610291575b600080fd5b610233610598565b604080516001600160a01b039092168252519081900360200190f35b6102756004803603602081101561026557600080fd5b50356001600160a01b03166105bc565b60408051918252519081900360200190f35b61028f610615565b005b61028f600480360360808110156102a757600080fd5b508035151590602081013590604081013590606001356106be565b61028f600480360360408110156102d857600080fd5b5060ff81351690602001356107d2565b610275600480360360408110156102fe57600080fd5b506001600160a01b0381351690602001351515610908565b61031e610afd565b60408051951515865260208601949094528484019290925260608401526080830152519081900360a00190f35b61028f6004803603602081101561036157600080fd5b50356001600160a01b0316610b15565b610233610c14565b6102756004803603602081101561038f57600080fd5b50356001600160a01b0316610c23565b61028f610cb5565b610233610d5f565b610275610d83565b610233610d9f565b610275600480360360208110156103d557600080fd5b5035610dc3565b61028f600480360360c08110156103f257600080fd5b5080359060208101359060408101359060608101359060808101359060a00135610de9565b610275610ed4565b6102756004803603606081101561043557600080fd5b50803590602081013590604001356001600160a01b0316610ef7565b61027561139c565b6102336113b9565b6102336113dd565b61048f6004803603602081101561047f57600080fd5b50356001600160a01b03166113ec565b604080519115158252519081900360200190f35b610233611522565b6104d1600480360360208110156104c157600080fd5b50356001600160a01b0316611531565b604080519485526020850193909352838301919091526060830152519081900360800190f35b610275611558565b610275611610565b61028f6004803603604081101561051d57600080fd5b506001600160a01b0381351690602001351515611696565b61053d61175c565b6040805195865260208601949094528484019290925260608401526080830152519081900360a00190f35b61027561176e565b6102756117ad565b61027561184a565b61048f61188f565b61027561189f565b6102756118a5565b7f000000000000000000000000000000000000000000000000000000000000000081565b6000806105c883610c23565b6001600160a01b0384166000908152600e602052604090205490915061271082106105f55780925061060e565b61060b61271061060583856118ab565b9061190b565b92505b5050919050565b6000546001600160a01b03163314610674576040805162461bcd60e51b815260206004820181905260248201527f4f776e61626c653a2063616c6c6572206973206e6f7420746865206f776e6572604482015290519081900360640190fd5b600080546040516001600160a01b03909116907fea8258f2d9ddb679928cf34b78cf645b7feda9acc828e4dd82d014eaae270eba908390a3600080546001600160a01b0319169055565b6000546001600160a01b0316331461071d576040805162461bcd60e51b815260206004820181905260248201527f4f776e61626c653a2063616c6c6572206973206e6f7420746865206f776e6572604482015290519081900360640190fd5b600454610733906103e8906106059060196118ab565b831115610787576040805162461bcd60e51b815260206004820152601360248201527f496e6372656d656e7420746f6f206c6172676500000000000000000000000000604482015290519081900360640190fd5b6040805160a08101825294151580865260208601859052908501839052606085018290524360809095018590526009805460ff19169091179055600a92909255600b55600c55600d55565b6000546001600160a01b03163314610831576040805162461bcd60e51b815260206004820181905260248201527f4f776e61626c653a2063616c6c6572206973206e6f7420746865206f776e6572604482015290519081900360640190fd5b600082600481111561083f57fe5b1415610890576127108110156108865760405162461bcd60e51b81526004018080602001828103825260248152602001806124346024913960400191505060405180910390fd5b6005819055610904565b600182600481111561089e57fe5b14156108ae576007819055610904565b60028260048111156108bc57fe5b14156108cc576008819055610904565b60038260048111156108da57fe5b14156108ea576006819055610904565b60048260048111156108f857fe5b14156109045760048190555b5050565b6000610912612326565b506001600160a01b0383166000908152600e602090815260408083208151608081018352815481526001820154938101939093526002810154918301919091526003015460608201529061096585610c23565b905061271081106109f5576001600160a01b0385166000818152600e602090815260408083208381556001810184905560028101849055600301839055855181519081529182019290925281517f51c99f515c87b0d95ba97f616edd182e8f161c4932eac17c6fefe9dab58b77b1929181900390910190a26109ec8585846000015161194d565b92505050610af7565b8151600090610a0c906127109061060590856118ab565b90506040518060800160405280610a30838660000151611a9890919063ffffffff16565b8152602001610a5a610a4f866040015143611a9890919063ffffffff16565b602087015190611a98565b8152436020808301919091526060808701516040938401526001600160a01b038a166000818152600e84528490208551808255868501516001830155868601516002830155959092015160039092019190915582518581529182019390935281517f51c99f515c87b0d95ba97f616edd182e8f161c4932eac17c6fefe9dab58b77b1929181900390910190a2610af186868361194d565b93505050505b92915050565b600954600a54600b54600c54600d5460ff9094169385565b6000546001600160a01b03163314610b74576040805162461bcd60e51b815260206004820181905260248201527f4f776e61626c653a2063616c6c6572206973206e6f7420746865206f776e6572604482015290519081900360640190fd5b6001600160a01b038116610bb95760405162461bcd60e51b81526004018080602001828103825260268152602001806123616026913960400191505060405180910390fd5b600080546040516001600160a01b03808516939216917fea8258f2d9ddb679928cf34b78cf645b7feda9acc828e4dd82d014eaae270eba91a3600180546001600160a01b0319166001600160a01b0392909216919091179055565b6003546001600160a01b031681565b6000610c2d612326565b506001600160a01b0382166000908152600e602090815260408083208151608081018352815481526001820154938101939093526002810154918301829052600301546060830152909190610c83904390611a98565b60208301519091508015610ca857610ca181610605846127106118ab565b9350610cad565b600093505b505050919050565b6001546001600160a01b03163314610cfe5760405162461bcd60e51b81526004018080602001828103825260228152602001806123876022913960400191505060405180910390fd5b600154600080546040516001600160a01b0393841693909116917faa151555690c956fc3ea32f106bb9f119b5237a061eaa8557cff3e51e3792c8d91a3600154600080546001600160a01b0319166001600160a01b03909216919091179055565b7f000000000000000000000000000000000000000000000000000000000000000081565b6000610d99610d9061184a565b600f5490611a98565b90505b90565b7f000000000000000000000000000000000000000000000000000000000000000081565b6000610af7662386f26fc10000610605610de485610ddf61176e565b611ada565b611c5c565b6000546001600160a01b03163314610e48576040805162461bcd60e51b815260206004820181905260248201527f4f776e61626c653a2063616c6c6572206973206e6f7420746865206f776e6572604482015290519081900360640190fd5b610e50610d83565b15610e8c5760405162461bcd60e51b81526004018080602001828103825260218152602001806123cf6021913960400191505060405180910390fd5b6040805160a0810182528781526020810187905290810185905260608101849052608001829052600495909555600593909355600691909155600755600855600f5543601055565b6000610d996305f5e100610ef1610ee9611610565b610ef161176e565b906118ab565b60006001600160a01b038216610f54576040805162461bcd60e51b815260206004820152600f60248201527f496e76616c696420616464726573730000000000000000000000000000000000604482015290519081900360640190fd5b610f5c611c74565b600854600f541115610fb5576040805162461bcd60e51b815260206004820152601460248201527f4d61782063617061636974792072656163686564000000000000000000000000604482015290519081900360640190fd5b6000610fbf610ed4565b90506000610fcb611c88565b90508085101561100c5760405162461bcd60e51b81526004018080602001828103825260238152602001806124116023913960400191505060405180910390fd5b60007f00000000000000000000000000000000000000000000000000000000000000006001600160a01b0316631eec5a9a7f0000000000000000000000000000000000000000000000000000000000000000896040518363ffffffff1660e01b815260040180836001600160a01b031681526020018281526020019250505060206040518083038186803b1580156110a357600080fd5b505afa1580156110b7573d6000803e3d6000fd5b505050506040513d60208110156110cd57600080fd5b5051905060006110dc82610dc3565b905062989680811015611136576040805162461bcd60e51b815260206004820152600e60248201527f426f6e6420746f6f20736d616c6c000000000000000000000000000000000000604482015290519081900360640190fd5b61113e6117ad565b811115611192576040805162461bcd60e51b815260206004820152600e60248201527f426f6e6420746f6f206c61726765000000000000000000000000000000000000604482015290519081900360640190fd5b6111e76001600160a01b037f000000000000000000000000000000000000000000000000000000000000000016337f00000000000000000000000000000000000000000000000000000000000000008b611cca565b604080516335106f4960e11b81523060048201526024810183905290516001600160a01b037f00000000000000000000000000000000000000000000000000000000000000001691636a20de9291604480830192600092919082900301818387803b15801561125557600080fd5b505af1158015611269573d6000803e3d6000fd5b5050600f5461127b9250905083611e3d565b600f55604080516080810182526001600160a01b0388166000908152600e602052919091205481906112ad9084611e3d565b81526005805460208084019190915243604080850182905260609485018a90526001600160a01b038c166000908152600e8452819020865181559286015160018401558501516002830155939092015160039092019190915554859161131291611e3d565b604080518b8152905184917f1fec6dc81f140574bf43f6b1e420ae1dd47928b9d57db8cbd7b8611063b85ae5919081900360200190a4611350611558565b611358611c88565b611360610ed4565b6040517f375b221f40939bfd8f49723a17cf7bc6d576ebf72efe2cc3e991826f5b3f390a90600090a4611391611e97565b979650505050505050565b6000610d996305f5e1006106056113b1611610565b610ef1611558565b7f000000000000000000000000000000000000000000000000000000000000000081565b6000546001600160a01b031681565b60007f00000000000000000000000000000000000000000000000000000000000000006001600160a01b0316826001600160a01b0316141561142d57600080fd5b7f00000000000000000000000000000000000000000000000000000000000000006001600160a01b0316826001600160a01b0316141561146c57600080fd5b61151a7f0000000000000000000000000000000000000000000000000000000000000000836001600160a01b03166370a08231306040518263ffffffff1660e01b815260040180826001600160a01b0316815260200191505060206040518083038186803b1580156114dd57600080fd5b505afa1580156114f1573d6000803e3d6000fd5b505050506040513d602081101561150757600080fd5b50516001600160a01b0385169190611f77565b506001919050565b6001546001600160a01b031681565b600e6020526000908152604090208054600182015460028301546003909301549192909184565b6000807f00000000000000000000000000000000000000000000000000000000000000006001600160a01b03166318160ddd6040518163ffffffff1660e01b815260040160206040518083038186803b1580156115b457600080fd5b505afa1580156115c8573d6000803e3d6000fd5b505050506040513d60208110156115de57600080fd5b5051905061160a670de0b6b3a7640000610605610de4611604633b9aca00610ef1610d83565b85611ada565b91505090565b600080600260009054906101000a90046001600160a01b03166001600160a01b031663feaf968c6040518163ffffffff1660e01b815260040160a06040518083038186803b15801561166157600080fd5b505afa158015611675573d6000803e3d6000fd5b505050506040513d60a081101561168b57600080fd5b506020015191505090565b6000546001600160a01b031633146116f5576040805162461bcd60e51b815260206004820181905260248201527f4f776e61626c653a2063616c6c6572206973206e6f7420746865206f776e6572604482015290519081900360640190fd5b6001600160a01b03821661170857600080fd5b600380547fffffffffffffffffffffff00ffffffffffffffffffffffffffffffffffffffff16600160a01b92151592909202919091176001600160a01b0319166001600160a01b0392909216919091179055565b60045460055460065460075460085485565b600061179962989680610605631dcd650061179361178a611558565b600454906118ab565b90611e3d565b600654909150811015610d9c575060065490565b6000610d99620186a06106056004600301547f00000000000000000000000000000000000000000000000000000000000000006001600160a01b03166318160ddd6040518163ffffffff1660e01b815260040160206040518083038186803b15801561181857600080fd5b505afa15801561182c573d6000803e3d6000fd5b505050506040513d602081101561184257600080fd5b5051906118ab565b60008061186260105443611a9890919063ffffffff16565b600554600f549192506118799161060590846118ab565b9150600f5482111561188b57600f5491505b5090565b600354600160a01b900460ff1681565b60105481565b600f5481565b6000826118ba57506000610af7565b828202828482816118c757fe5b04146119045760405162461bcd60e51b81526004018080602001828103825260218152602001806123f06021913960400191505060405180910390fd5b9392505050565b600061190483836040518060400160405280601a81526020017f536166654d6174683a206469766973696f6e206279207a65726f0000000000008152506120e1565b6000826119fd577f00000000000000000000000000000000000000000000000000000000000000006001600160a01b031663a9059cbb85846040518363ffffffff1660e01b815260040180836001600160a01b0316815260200182815260200192505050602060405180830381600087803b1580156119cb57600080fd5b505af11580156119df573d6000803e3d6000fd5b505050506040513d60208110156119f557600080fd5b50611a919050565b6003546040805163995846bd60e01b81526001600160a01b0387811660048301526024820186905260ff600160a01b850416151560448301529151919092169163995846bd9160648083019260209291908290030181600087803b158015611a6457600080fd5b505af1158015611a78573d6000803e3d6000fd5b505050506040513d6020811015611a8e57600080fd5b50505b5092915050565b600061190483836040518060400160405280601e81526020017f536166654d6174683a207375627472616374696f6e206f766572666c6f77000081525061219a565b611ae261234e565b60008211611b215760405162461bcd60e51b81526004018080602001828103825260268152602001806123a96026913960400191505060405180910390fd5b82611b3b5750604080516020810190915260008152610af7565b71ffffffffffffffffffffffffffffffffffff8311611be257600082607085901b81611b6357fe5b0490506001600160e01b03811115611bc2576040805162461bcd60e51b815260206004820152601e60248201527f4669786564506f696e743a3a6672616374696f6e3a206f766572666c6f770000604482015290519081900360640190fd5b6040518060200160405280826001600160e01b0316815250915050610af7565b6000611bfe846e010000000000000000000000000000856121f4565b90506001600160e01b03811115611bc2576040805162461bcd60e51b815260206004820152601e60248201527f4669786564506f696e743a3a6672616374696f6e3a206f766572666c6f770000604482015290519081900360640190fd5b516612725dd1d243ab6001600160e01b039091160490565b611c7f610d9061184a565b600f5543601055565b6000611ca462989680610605631dcd650061179361178a611558565b600654909150811015611cba5750600654610d9c565b60065415610d9c57600060065590565b604080516001600160a01b0385811660248301528481166044830152606480830185905283518084039091018152608490920183526020820180516001600160e01b03166323b872dd60e01b17815292518251600094606094938a169392918291908083835b60208310611d4f5780518252601f199092019160209182019101611d30565b6001836020036101000a0380198251168184511680821785525050505050509050019150506000604051808303816000865af19150503d8060008114611db1576040519150601f19603f3d011682016040523d82523d6000602084013e611db6565b606091505b5091509150818015611de4575080511580611de45750808060200190516020811015611de157600080fd5b50515b611e35576040805162461bcd60e51b815260206004820152601460248201527f5452414e534645525f46524f4d5f4641494c4544000000000000000000000000604482015290519081900360640190fd5b505050505050565b600082820183811015611904576040805162461bcd60e51b815260206004820152601b60248201527f536166654d6174683a206164646974696f6e206f766572666c6f770000000000604482015290519081900360640190fd5b600c54600d54600091611eaa9190611e3d565b600a5490915015801590611ebe5750804310155b15611f745760045460095460ff1615611ef857600a54600454611ee091611e3d565b6004819055600b5411611ef3576000600a555b611f1a565b600a54600454611f0791611a98565b6004819055600b5410611f1a576000600a555b43600d55600454600a546009546040805185815260208101949094528381019290925260ff1615156060830152517fb923e581a0f83128e9e1d8297aa52b18d6744310476e0b54509c054cd7a93b2a9181900360800190a1505b50565b604080516001600160a01b038481166024830152604480830185905283518084039091018152606490920183526020820180516001600160e01b031663a9059cbb60e01b178152925182516000946060949389169392918291908083835b60208310611ff45780518252601f199092019160209182019101611fd5565b6001836020036101000a0380198251168184511680821785525050505050509050019150506000604051808303816000865af19150503d8060008114612056576040519150601f19603f3d011682016040523d82523d6000602084013e61205b565b606091505b5091509150818015612089575080511580612089575080806020019051602081101561208657600080fd5b50515b6120da576040805162461bcd60e51b815260206004820152600f60248201527f5452414e534645525f4641494c45440000000000000000000000000000000000604482015290519081900360640190fd5b5050505050565b6000818361216d5760405162461bcd60e51b81526004018080602001828103825283818151815260200191508051906020019080838360005b8381101561213257818101518382015260200161211a565b50505050905090810190601f16801561215f5780820380516001836020036101000a031916815260200191505b509250505060405180910390fd5b50600083858161217957fe5b04905083858161218557fe5b0681850201851461219257fe5b949350505050565b600081848411156121ec5760405162461bcd60e51b815260206004820181815283516024840152835190928392604490910191908501908083836000831561213257818101518382015260200161211a565b505050900390565b60008060006122038686612289565b915091506000848061221157fe5b868809905082811115612225576001820391505b808303925084821061227e576040805162461bcd60e51b815260206004820152601a60248201527f46756c6c4d6174683a3a6d756c4469763a206f766572666c6f77000000000000604482015290519081900360640190fd5b6113918383876122b6565b60008080600019848609905083850292508281039150828110156122ae576001820391505b509250929050565b600081810382168083816122c657fe5b0492508085816122d257fe5b0494508081600003816122e157fe5b60028581038087028203028087028203028087028203028087028203028087028203028087028203029586029003909402930460010193909302939093010292915050565b6040518060800160405280600081526020016000815260200160008152602001600081525090565b6040805160208101909152600081529056fe4f776e61626c653a206e6577206f776e657220697320746865207a65726f20616464726573734f776e61626c653a206d757374206265206e6577206f776e657220746f2070756c6c4669786564506f696e743a3a6672616374696f6e3a206469766973696f6e206279207a65726f44656274206d757374206265203020666f7220696e697469616c697a6174696f6e536166654d6174683a206d756c7469706c69636174696f6e206f766572666c6f77536c697070616765206c696d69743a206d6f7265207468616e206d617820707269636556657374696e67206d757374206265206c6f6e676572207468616e20333620686f757273a164736f6c6343000705000a",
  "linkReferences": {},
  "deployedLinkReferences": {}
}