{
  "_format": "hh-sol-artifact-1",
  "contractName": "Distributor",
  "sourceName": "contracts/Distributor.sol",
  "abi": [
    {
      "inputs": [
        {
          "internalType": "address",
          "name": "_treasury",
          "type": "address"
        },
        {
          "internalType": "address",
          "name": "_sdoge",
          "type": "address"
        },
        {
          "internalType": "address",
          "name": "_staking",
          "type": "address"
        }
      ],
      "stateMutability": "nonpayable",
      "type": "constructor"
    },
    {
      "anonymous": false,
      "inputs": [
        {
          "indexed": true,
          "internalType": "address",
          "name": "previousOwner",
          "type": "address"
        },
        {
          "indexed": true,
          "internalType": "address",
          "name": "newOwner",
          "type": "address"
        }
      ],
      "name": "OwnershipTransferred",
      "type": "event"
    },
    {
      "inputs": [
        {
          "internalType": "address",
          "name": "_recipient",
          "type": "address"
        },
        {
          "internalType": "uint256",
          "name": "_rewardRate",
          "type": "uint256"
        }
      ],
      "name": "addRecipient",
      "outputs": [],
      "stateMutability": "nonpayable",
      "type": "function"
    },
    {
      "inputs": [
        {
          "internalType": "uint256",
          "name": "",
          "type": "uint256"
        }
      ],
      "name": "adjustments",
      "outputs": [
        {
          "internalType": "bool",
          "name": "add",
          "type": "bool"
        },
        {
          "internalType": "uint256",
          "name": "rate",
          "type": "uint256"
        },
        {
          "internalType": "uint256",
          "name": "target",
          "type": "uint256"
        }
      ],
      "stateMutability": "view",
      "type": "function"
    },
    {
      "inputs": [],
      "name": "bounty",
      "outputs": [
        {
          "internalType": "uint256",
          "name": "",
          "type": "uint256"
        }
      ],
      "stateMutability": "view",
      "type": "function"
    },
    {
      "inputs": [],
      "name": "distribute",
      "outputs": [],
      "stateMutability": "nonpayable",
      "type": "function"
    },
    {
      "inputs": [
        {
          "internalType": "uint256",
          "name": "",
          "type": "uint256"
        }
      ],
      "name": "info",
      "outputs": [
        {
          "internalType": "uint256",
          "name": "rate",
          "type": "uint256"
        },
        {
          "internalType": "address",
          "name": "recipient",
          "type": "address"
        }
      ],
      "stateMutability": "view",
      "type": "function"
    },
    {
      "inputs": [
        {
          "internalType": "uint256",
          "name": "_rate",
          "type": "uint256"
        }
      ],
      "name": "nextRewardAt",
      "outputs": [
        {
          "internalType": "uint256",
          "name": "",
          "type": "uint256"
        }
      ],
      "stateMutability": "view",
      "type": "function"
    },
    {
      "inputs": [
        {
          "internalType": "address",
          "name": "_recipient",
          "type": "address"
        }
      ],
      "name": "nextRewardFor",
      "outputs": [
        {
          "internalType": "uint256",
          "name": "",
          "type": "uint256"
        }
      ],
      "stateMutability": "view",
      "type": "function"
    },
    {
      "inputs": [],
      "name": "policy",
      "outputs": [
        {
          "internalType": "address",
          "name": "",
          "type": "address"
        }
      ],
      "stateMutability": "view",
      "type": "function"
    },
    {
      "inputs": [],
      "name": "pullPolicy",
      "outputs": [],
      "stateMutability": "nonpayable",
      "type": "function"
    },
    {
      "inputs": [
        {
          "internalType": "address",
          "name": "newPolicy_",
          "type": "address"
        }
      ],
      "name": "pushPolicy",
      "outputs": [],
      "stateMutability": "nonpayable",
      "type": "function"
    },
    {
      "inputs": [
        {
          "internalType": "uint256",
          "name": "_index",
          "type": "uint256"
        }
      ],
      "name": "removeRecipient",
      "outputs": [],
      "stateMutability": "nonpayable",
      "type": "function"
    },
    {
      "inputs": [],
      "name": "renouncePolicy",
      "outputs": [],
      "stateMutability": "nonpayable",
      "type": "function"
    },
    {
      "inputs": [],
      "name": "retrieveBounty",
      "outputs": [
        {
          "internalType": "uint256",
          "name": "",
          "type": "uint256"
        }
      ],
      "stateMutability": "nonpayable",
      "type": "function"
    },
    {
      "inputs": [
        {
          "internalType": "uint256",
          "name": "_index",
          "type": "uint256"
        },
        {
          "internalType": "bool",
          "name": "_add",
          "type": "bool"
        },
        {
          "internalType": "uint256",
          "name": "_rate",
          "type": "uint256"
        },
        {
          "internalType": "uint256",
          "name": "_target",
          "type": "uint256"
        }
      ],
      "name": "setAdjustment",
      "outputs": [],
      "stateMutability": "nonpayable",
      "type": "function"
    },
    {
      "inputs": [
        {
          "internalType": "uint256",
          "name": "_bounty",
          "type": "uint256"
        }
      ],
      "name": "setBounty",
      "outputs": [],
      "stateMutability": "nonpayable",
      "type": "function"
    }
  ],
  "bytecode": "0x610100604052620f424060e05234801561001857600080fd5b506040516115ac3803806115ac8339818101604052606081101561003b57600080fd5b5080516020820151604092830151600080546001600160a01b031916331780825594519394929391926001600160a01b0316917f8be0079c531659141344cd1fd0a4f28419497f9722a3daafe3b4186f6b6457e0908290a36001600160a01b0383166100ee576040805162461bcd60e51b815260206004820152601660248201527f5a65726f20616464726573733a20547265617375727900000000000000000000604482015290519081900360640190fd5b6001600160601b0319606084901b1660a0526001600160a01b03821661015b576040805162461bcd60e51b815260206004820152601360248201527f5a65726f20616464726573733a2053444f474500000000000000000000000000604482015290519081900360640190fd5b6001600160601b0319606083901b166080526001600160a01b0381166101c8576040805162461bcd60e51b815260206004820152601560248201527f5a65726f20616464726573733a205374616b696e670000000000000000000000604482015290519081900360640190fd5b6001600160601b031960609190911b1660c052505060805160601c60a05160601c60c05160601c60e05161137d61022f6000398061095b5280610d83525080610a205280610ba55280610c3f525080610ab75280610c10525080610980525061137d6000f3fe608060405234801561001057600080fd5b50600436106100f55760003560e01c8063943dfef111610097578063c9fa8b2a11610066578063c9fa8b2a1461027c578063e4fc6b6d14610299578063e7187e8a146102a1578063f7982243146102a9576100f5565b8063943dfef114610209578063a15ad07714610211578063a4b2398014610237578063bc3b2b121461023f576100f5565b80635beede08116100d35780635beede08146101945780635d87d3631461019e5780635db854b0146101bb5780638e69e255146101ec576100f5565b80630505c8c9146100fa5780632e3405991461011e57806336d33f441461015c575b600080fd5b6101026102d5565b604080516001600160a01b039092168252519081900360200190f35b61013b6004803603602081101561013457600080fd5b50356102e4565b604080519283526001600160a01b0390911660208301528051918290030190f35b6101826004803603602081101561017257600080fd5b50356001600160a01b031661031b565b60408051918252519081900360200190f35b61019c6103a8565b005b61019c600480360360208110156101b457600080fd5b5035610420565b61019c600480360360808110156101d157600080fd5b508035906020810135151590604081013590606001356104dd565b61019c6004803603602081101561020257600080fd5b503561066b565b6101826107b9565b61019c6004803603602081101561022757600080fd5b50356001600160a01b03166107bf565b61019c610885565b61025c6004803603602081101561025557600080fd5b503561092e565b604080519315158452602084019290925282820152519081900360600190f35b6101826004803603602081101561029257600080fd5b5035610954565b61019c610a15565b610182610b98565b61019c600480360360408110156102bf57600080fd5b506001600160a01b038135169060200135610cc7565b6000546001600160a01b031690565b600481815481106102f457600080fd5b6000918252602090912060029091020180546001909101549091506001600160a01b031682565b60008060005b6004548110156103a157836001600160a01b03166004828154811061034257fe5b60009182526020909120600160029092020101546001600160a01b031614156103995761039661038f6004838154811061037857fe5b906000526020600020906002020160000154610954565b8390610e8b565b91505b600101610321565b5092915050565b6001546001600160a01b031633146103bf57600080fd5b600154600080546040516001600160a01b0393841693909116917f8be0079c531659141344cd1fd0a4f28419497f9722a3daafe3b4186f6b6457e091a3600154600080546001600160a01b0319166001600160a01b03909216919091179055565b6000546001600160a01b0316331461047f576040805162461bcd60e51b815260206004820181905260248201527f4f776e61626c653a2063616c6c6572206973206e6f7420746865206f776e6572604482015290519081900360640190fd5b63773594008111156104d8576040805162461bcd60e51b815260206004820152600860248201527f546f6f206d756368000000000000000000000000000000000000000000000000604482015290519081900360640190fd5b600355565b6000546001600160a01b0316331461053c576040805162461bcd60e51b815260206004820181905260248201527f4f776e61626c653a2063616c6c6572206973206e6f7420746865206f776e6572604482015290519081900360640190fd5b60006001600160a01b03166004858154811061055457fe5b60009182526020909120600160029092020101546001600160a01b031614156105c4576040805162461bcd60e51b815260206004820152601860248201527f526563697069656e7420646f6573206e6f742065786973740000000000000000604482015290519081900360640190fd5b8261062657600484815481106105d657fe5b9060005260206000209060020201600001548211156106265760405162461bcd60e51b815260040180806020018281038252602f815260200180611342602f913960400191505060405180910390fd5b6040805160608101825293151584526020808501938452848201928352600095865260029081905294209251835460ff19169015151783559051600183015551910155565b6000546001600160a01b031633146106ca576040805162461bcd60e51b815260206004820181905260248201527f4f776e61626c653a2063616c6c6572206973206e6f7420746865206f776e6572604482015290519081900360640190fd5b60006001600160a01b0316600482815481106106e257fe5b60009182526020909120600160029092020101546001600160a01b03161415610752576040805162461bcd60e51b815260206004820152601860248201527f526563697069656e7420646f6573206e6f742065786973740000000000000000604482015290519081900360640190fd5b60006004828154811061076157fe5b906000526020600020906002020160010160006101000a8154816001600160a01b0302191690836001600160a01b031602179055506000600482815481106107a557fe5b600091825260209091206002909102015550565b60035481565b6000546001600160a01b0316331461081e576040805162461bcd60e51b815260206004820181905260248201527f4f776e61626c653a2063616c6c6572206973206e6f7420746865206f776e6572604482015290519081900360640190fd5b6001600160a01b0381166108635760405162461bcd60e51b81526004018080602001828103825260268152602001806112fb6026913960400191505060405180910390fd5b600180546001600160a01b0319166001600160a01b0392909216919091179055565b6000546001600160a01b031633146108e4576040805162461bcd60e51b815260206004820181905260248201527f4f776e61626c653a2063616c6c6572206973206e6f7420746865206f776e6572604482015290519081900360640190fd5b600080546040516001600160a01b03909116907f8be0079c531659141344cd1fd0a4f28419497f9722a3daafe3b4186f6b6457e0908390a3600080546001600160a01b0319169055565b600260208190526000918252604090912080546001820154919092015460ff9092169183565b6000610a0f7f0000000000000000000000000000000000000000000000000000000000000000610a09847f00000000000000000000000000000000000000000000000000000000000000006001600160a01b03166318160ddd6040518163ffffffff1660e01b815260040160206040518083038186803b1580156109d757600080fd5b505afa1580156109eb573d6000803e3d6000fd5b505050506040513d6020811015610a0157600080fd5b505190610eec565b90610f45565b92915050565b336001600160a01b037f00000000000000000000000000000000000000000000000000000000000000001614610a81576040805162461bcd60e51b815260206004820152600c60248201526b4f6e6c79207374616b696e6760a01b604482015290519081900360640190fd5b60005b600454811015610b9557600060048281548110610a9d57fe5b9060005260206000209060020201600001541115610b8d577f00000000000000000000000000000000000000000000000000000000000000006001600160a01b0316636a20de9260048381548110610af157fe5b906000526020600020906002020160010160009054906101000a90046001600160a01b0316610b266004858154811061037857fe5b6040518363ffffffff1660e01b815260040180836001600160a01b0316815260200182815260200192505050600060405180830381600087803b158015610b6c57600080fd5b505af1158015610b80573d6000803e3d6000fd5b50505050610b8d81610f87565b600101610a84565b50565b6000336001600160a01b037f00000000000000000000000000000000000000000000000000000000000000001614610c06576040805162461bcd60e51b815260206004820152600c60248201526b4f6e6c79207374616b696e6760a01b604482015290519081900360640190fd5b60035415610cc0577f00000000000000000000000000000000000000000000000000000000000000006001600160a01b0316636a20de927f00000000000000000000000000000000000000000000000000000000000000006003546040518363ffffffff1660e01b815260040180836001600160a01b0316815260200182815260200192505050600060405180830381600087803b158015610ca757600080fd5b505af1158015610cbb573d6000803e3d6000fd5b505050505b5060035490565b6000546001600160a01b03163314610d26576040805162461bcd60e51b815260206004820181905260248201527f4f776e61626c653a2063616c6c6572206973206e6f7420746865206f776e6572604482015290519081900360640190fd5b6001600160a01b038216610d81576040805162461bcd60e51b815260206004820152601760248201527f5a65726f20616464726573733a20526563697069656e74000000000000000000604482015290519081900360640190fd5b7f0000000000000000000000000000000000000000000000000000000000000000811115610df6576040805162461bcd60e51b815260206004820152601e60248201527f526174652063616e6e6f74206578636565642064656e6f6d696e61746f720000604482015290519081900360640190fd5b604080518082019091529081526001600160a01b03918216602082019081526004805460018101825560009190915291517f8a35acfbc15ff81a39ae7d344fd709f28e8600b4aa8c65c6b64bfe7fe36bd19b600290930292830155517f8a35acfbc15ff81a39ae7d344fd709f28e8600b4aa8c65c6b64bfe7fe36bd19c90910180546001600160a01b03191691909216179055565b600082820183811015610ee5576040805162461bcd60e51b815260206004820152601b60248201527f536166654d6174683a206164646974696f6e206f766572666c6f770000000000604482015290519081900360640190fd5b9392505050565b600082610efb57506000610a0f565b82820282848281610f0857fe5b0414610ee55760405162461bcd60e51b81526004018080602001828103825260218152602001806113216021913960400191505060405180910390fd5b6000610ee583836040518060400160405280601a81526020017f536166654d6174683a206469766973696f6e206279207a65726f000000000000815250611187565b610f8f6112d7565b506000818152600260208181526040928390208351606081018552815460ff161515815260018201549281018390529201549282019290925290156111835780511561108757611001816020015160048481548110610fea57fe5b600091825260209091206002909102015490610e8b565b6004838154811061100e57fe5b60009182526020909120600290910201556040810151600480548490811061103257fe5b906000526020600020906002020160000154106110825760008281526002602052604080822060010191909155810151600480548490811061107057fe5b60009182526020909120600290910201555b611183565b80602001516004838154811061109957fe5b9060005260206000209060020201600001541115611100576110dd8160200151600484815481106110c657fe5b600091825260209091206002909102015490611240565b600483815481106110ea57fe5b6000918252602090912060029091020155611121565b60006004838154811061110f57fe5b60009182526020909120600290910201555b80604001516004838154811061113357fe5b906000526020600020906002020160000154116111835760008281526002602052604080822060010191909155810151600480548490811061117157fe5b60009182526020909120600290910201555b5050565b600081836112135760405162461bcd60e51b81526004018080602001828103825283818151815260200191508051906020019080838360005b838110156111d85781810151838201526020016111c0565b50505050905090810190601f1680156112055780820380516001836020036101000a031916815260200191505b509250505060405180910390fd5b50600083858161121f57fe5b04905083858161122b57fe5b0681850201851461123857fe5b949350505050565b6000610ee583836040518060400160405280601e81526020017f536166654d6174683a207375627472616374696f6e206f766572666c6f770000815250600081848411156112cf5760405162461bcd60e51b81526020600482018181528351602484015283519092839260449091019190850190808383600083156111d85781810151838201526020016111c0565b505050900390565b60405180606001604052806000151581526020016000815260200160008152509056fe4f776e61626c653a206e6577206f776e657220697320746865207a65726f2061646472657373536166654d6174683a206d756c7469706c69636174696f6e206f766572666c6f7743616e6e6f742064656372656173652072617465206279206d6f7265207468616e20697420616c7265616479206973a164736f6c6343000705000a",
  "linkReferences": {},
  "deployedLinkReferences": {}
}