{
  "_format": "hh-sol-artifact-1",
  "contractName": "ScholarDAOToken",
  "sourceName": "contracts/ScholarDAOToken.sol",
  "abi": [
    {
      "inputs": [
        {
          "internalType": "address",
          "name": "_psdao",
          "type": "address"
        }
      ],
      "stateMutability": "nonpayable",
      "type": "constructor"
    },
    {
      "anonymous": false,
      "inputs": [
        {
          "indexed": true,
          "internalType": "address",
          "name": "owner",
          "type": "address"
        },
        {
          "indexed": true,
          "internalType": "address",
          "name": "spender",
          "type": "address"
        },
        {
          "indexed": false,
          "internalType": "uint256",
          "name": "value",
          "type": "uint256"
        }
      ],
      "name": "Approval",
      "type": "event"
    },
    {
      "anonymous": false,
      "inputs": [
        {
          "indexed": true,
          "internalType": "address",
          "name": "previousOwner",
          "type": "address"
        },
        {
          "indexed": true,
          "internalType": "address",
          "name": "newOwner",
          "type": "address"
        }
      ],
      "name": "OwnershipPulled",
      "type": "event"
    },
    {
      "anonymous": false,
      "inputs": [
        {
          "indexed": true,
          "internalType": "address",
          "name": "previousOwner",
          "type": "address"
        },
        {
          "indexed": true,
          "internalType": "address",
          "name": "newOwner",
          "type": "address"
        }
      ],
      "name": "OwnershipPushed",
      "type": "event"
    },
    {
      "anonymous": false,
      "inputs": [
        {
          "indexed": true,
          "internalType": "address",
          "name": "from",
          "type": "address"
        },
        {
          "indexed": true,
          "internalType": "address",
          "name": "to",
          "type": "address"
        },
        {
          "indexed": false,
          "internalType": "uint256",
          "name": "value",
          "type": "uint256"
        }
      ],
      "name": "Transfer",
      "type": "event"
    },
    {
      "inputs": [],
      "name": "DOMAIN_SEPARATOR",
      "outputs": [
        {
          "internalType": "bytes32",
          "name": "",
          "type": "bytes32"
        }
      ],
      "stateMutability": "view",
      "type": "function"
    },
    {
      "inputs": [],
      "name": "PERMIT_TYPEHASH",
      "outputs": [
        {
          "internalType": "bytes32",
          "name": "",
          "type": "bytes32"
        }
      ],
      "stateMutability": "view",
      "type": "function"
    },
    {
      "inputs": [
        {
          "internalType": "address",
          "name": "account_",
          "type": "address"
        },
        {
          "internalType": "uint256",
          "name": "amount_",
          "type": "uint256"
        }
      ],
      "name": "_burnFrom",
      "outputs": [],
      "stateMutability": "nonpayable",
      "type": "function"
    },
    {
      "inputs": [],
      "name": "_newOwner",
      "outputs": [
        {
          "internalType": "address",
          "name": "",
          "type": "address"
        }
      ],
      "stateMutability": "view",
      "type": "function"
    },
    {
      "inputs": [],
      "name": "_owner",
      "outputs": [
        {
          "internalType": "address",
          "name": "",
          "type": "address"
        }
      ],
      "stateMutability": "view",
      "type": "function"
    },
    {
      "inputs": [
        {
          "internalType": "address",
          "name": "owner",
          "type": "address"
        },
        {
          "internalType": "address",
          "name": "spender",
          "type": "address"
        }
      ],
      "name": "allowance",
      "outputs": [
        {
          "internalType": "uint256",
          "name": "",
          "type": "uint256"
        }
      ],
      "stateMutability": "view",
      "type": "function"
    },
    {
      "inputs": [
        {
          "internalType": "address",
          "name": "spender",
          "type": "address"
        },
        {
          "internalType": "uint256",
          "name": "amount",
          "type": "uint256"
        }
      ],
      "name": "approve",
      "outputs": [
        {
          "internalType": "bool",
          "name": "",
          "type": "bool"
        }
      ],
      "stateMutability": "nonpayable",
      "type": "function"
    },
    {
      "inputs": [
        {
          "internalType": "address",
          "name": "account",
          "type": "address"
        }
      ],
      "name": "balanceOf",
      "outputs": [
        {
          "internalType": "uint256",
          "name": "",
          "type": "uint256"
        }
      ],
      "stateMutability": "view",
      "type": "function"
    },
    {
      "inputs": [
        {
          "internalType": "uint256",
          "name": "amount",
          "type": "uint256"
        }
      ],
      "name": "burn",
      "outputs": [],
      "stateMutability": "nonpayable",
      "type": "function"
    },
    {
      "inputs": [
        {
          "internalType": "address",
          "name": "account_",
          "type": "address"
        },
        {
          "internalType": "uint256",
          "name": "amount_",
          "type": "uint256"
        }
      ],
      "name": "burnFrom",
      "outputs": [],
      "stateMutability": "nonpayable",
      "type": "function"
    },
    {
      "inputs": [],
      "name": "claimEnabled",
      "outputs": [
        {
          "internalType": "bool",
          "name": "",
          "type": "bool"
        }
      ],
      "stateMutability": "view",
      "type": "function"
    },
    {
      "inputs": [],
      "name": "claimWithPSDAO",
      "outputs": [],
      "stateMutability": "nonpayable",
      "type": "function"
    },
    {
      "inputs": [],
      "name": "decimals",
      "outputs": [
        {
          "internalType": "uint8",
          "name": "",
          "type": "uint8"
        }
      ],
      "stateMutability": "view",
      "type": "function"
    },
    {
      "inputs": [
        {
          "internalType": "address",
          "name": "spender",
          "type": "address"
        },
        {
          "internalType": "uint256",
          "name": "subtractedValue",
          "type": "uint256"
        }
      ],
      "name": "decreaseAllowance",
      "outputs": [
        {
          "internalType": "bool",
          "name": "",
          "type": "bool"
        }
      ],
      "stateMutability": "nonpayable",
      "type": "function"
    },
    {
      "inputs": [],
      "name": "enableClaim",
      "outputs": [],
      "stateMutability": "nonpayable",
      "type": "function"
    },
    {
      "inputs": [
        {
          "internalType": "address",
          "name": "spender",
          "type": "address"
        },
        {
          "internalType": "uint256",
          "name": "addedValue",
          "type": "uint256"
        }
      ],
      "name": "increaseAllowance",
      "outputs": [
        {
          "internalType": "bool",
          "name": "",
          "type": "bool"
        }
      ],
      "stateMutability": "nonpayable",
      "type": "function"
    },
    {
      "inputs": [
        {
          "internalType": "address",
          "name": "account_",
          "type": "address"
        },
        {
          "internalType": "uint256",
          "name": "amount_",
          "type": "uint256"
        }
      ],
      "name": "mint",
      "outputs": [],
      "stateMutability": "nonpayable",
      "type": "function"
    },
    {
      "inputs": [],
      "name": "name",
      "outputs": [
        {
          "internalType": "string",
          "name": "",
          "type": "string"
        }
      ],
      "stateMutability": "view",
      "type": "function"
    },
    {
      "inputs": [
        {
          "internalType": "address",
          "name": "owner",
          "type": "address"
        }
      ],
      "name": "nonces",
      "outputs": [
        {
          "internalType": "uint256",
          "name": "",
          "type": "uint256"
        }
      ],
      "stateMutability": "view",
      "type": "function"
    },
    {
      "inputs": [
        {
          "internalType": "address",
          "name": "owner",
          "type": "address"
        },
        {
          "internalType": "address",
          "name": "spender",
          "type": "address"
        },
        {
          "internalType": "uint256",
          "name": "amount",
          "type": "uint256"
        },
        {
          "internalType": "uint256",
          "name": "deadline",
          "type": "uint256"
        },
        {
          "internalType": "uint8",
          "name": "v",
          "type": "uint8"
        },
        {
          "internalType": "bytes32",
          "name": "r",
          "type": "bytes32"
        },
        {
          "internalType": "bytes32",
          "name": "s",
          "type": "bytes32"
        }
      ],
      "name": "permit",
      "outputs": [],
      "stateMutability": "nonpayable",
      "type": "function"
    },
    {
      "inputs": [],
      "name": "psdao",
      "outputs": [
        {
          "internalType": "address",
          "name": "",
          "type": "address"
        }
      ],
      "stateMutability": "view",
      "type": "function"
    },
    {
      "inputs": [],
      "name": "pullManagement",
      "outputs": [],
      "stateMutability": "nonpayable",
      "type": "function"
    },
    {
      "inputs": [
        {
          "internalType": "address",
          "name": "newOwner_",
          "type": "address"
        }
      ],
      "name": "pushManagement",
      "outputs": [],
      "stateMutability": "nonpayable",
      "type": "function"
    },
    {
      "inputs": [],
      "name": "renounceManagement",
      "outputs": [],
      "stateMutability": "nonpayable",
      "type": "function"
    },
    {
      "inputs": [
        {
          "internalType": "address",
          "name": "vault_",
          "type": "address"
        }
      ],
      "name": "setVault",
      "outputs": [
        {
          "internalType": "bool",
          "name": "",
          "type": "bool"
        }
      ],
      "stateMutability": "nonpayable",
      "type": "function"
    },
    {
      "inputs": [],
      "name": "symbol",
      "outputs": [
        {
          "internalType": "string",
          "name": "",
          "type": "string"
        }
      ],
      "stateMutability": "view",
      "type": "function"
    },
    {
      "inputs": [],
      "name": "totalSupply",
      "outputs": [
        {
          "internalType": "uint256",
          "name": "",
          "type": "uint256"
        }
      ],
      "stateMutability": "view",
      "type": "function"
    },
    {
      "inputs": [
        {
          "internalType": "address",
          "name": "recipient",
          "type": "address"
        },
        {
          "internalType": "uint256",
          "name": "amount",
          "type": "uint256"
        }
      ],
      "name": "transfer",
      "outputs": [
        {
          "internalType": "bool",
          "name": "",
          "type": "bool"
        }
      ],
      "stateMutability": "nonpayable",
      "type": "function"
    },
    {
      "inputs": [
        {
          "internalType": "address",
          "name": "sender",
          "type": "address"
        },
        {
          "internalType": "address",
          "name": "recipient",
          "type": "address"
        },
        {
          "internalType": "uint256",
          "name": "amount",
          "type": "uint256"
        }
      ],
      "name": "transferFrom",
      "outputs": [
        {
          "internalType": "bool",
          "name": "",
          "type": "bool"
        }
      ],
      "stateMutability": "nonpayable",
      "type": "function"
    },
    {
      "inputs": [],
      "name": "vault",
      "outputs": [
        {
          "internalType": "address",
          "name": "",
          "type": "address"
        }
      ],
      "stateMutability": "view",
      "type": "function"
    }
  ],
  "bytecode": "0x60a06040523480156200001157600080fd5b5060405162001bcf38038062001bcf833981810160405260208110156200003757600080fd5b5051604080518082018252601081526f29b1b437b630b92220a7903a37b5b2b760811b6020828101918252835180850190945260048452635344414f60e01b908401528151919291600991620000919160039190620002a9565b508151620000a7906004906020850190620002a9565b506005805460ff191660ff92909216919091179055504690507f8b73c3c69bb8fe3d512ecc4cf759cc79239f7b179b0ffacaa9a75d522b39400f620000eb6200020f565b805160209182012060408051808201825260018152603160f81b90840152805180840194909452838101919091527fc89efdaa54c0f20c7adf612882df0950f5a951637e0307cdcb4c672f298b8bc6606084015260808301939093523060a0808401919091528351808403909101815260c0909201928390528151910120600755600880546001600160a01b0319163317908190556001600160a01b0316906000907fea8258f2d9ddb679928cf34b78cf645b7feda9acc828e4dd82d014eaae270eba908290a36001600160a01b038116620001f95760405162461bcd60e51b815260040180806020018281038252602581526020018062001baa6025913960400191505060405180910390fd5b60601b6001600160601b03191660805262000355565b60038054604080516020601f60026000196101006001881615020190951694909404938401819004810282018101909252828152606093909290918301828280156200029f5780601f1062000273576101008083540402835291602001916200029f565b820191906000526020600020905b8154815290600101906020018083116200028157829003601f168201915b5050505050905090565b828054600181600116156101000203166002900490600052602060002090601f016020900481019282620002e157600085556200032c565b82601f10620002fc57805160ff19168380011785556200032c565b828001600101855582156200032c579182015b828111156200032c5782518255916020019190600101906200030f565b506200033a9291506200033e565b5090565b5b808211156200033a57600081556001016200033f565b60805160601c61182d6200037d60003980610b755280610d205280610de1525061182d6000f3fe608060405234801561001057600080fd5b50600436106101da5760003560e01c80636817031b11610104578063a457c2d7116100a2578063c5c3597611610071578063c5c3597614610535578063d505accf1461053d578063dd62ed3e1461058e578063fbfa77cf146105bc576101da565b8063a457c2d7146104cd578063a9059cbb146104f9578063b2bdfa7b14610525578063b74908fe1461052d576101da565b80637ecebe00116100de5780637ecebe001461044f578063811ba4b51461047557806395d89b4114610499578063a22b35ce146104a1576101da565b80636817031b146103d757806370a08231146103fd57806379cc679014610423576101da565b806330adf81f1161017c57806340c10f191161014b57806340c10f191461036057806342966c681461038c57806346f68ee9146103a95780635a96ac0a146103cf576101da565b806330adf81f14610306578063313ce5671461030e5780633644e5151461032c5780633950935114610334576101da565b806318160ddd116101b857806318160ddd146102a657806323b872dd146102c05780632866ed21146102f657806328dae6e3146102fe576101da565b806306fdde03146101df578063089208d81461025c578063095ea7b314610266575b600080fd5b6101e76105c4565b6040805160208082528351818301528351919283929083019185019080838360005b83811015610221578181015183820152602001610209565b50505050905090810190601f16801561024e5780820380516001836020036101000a031916815260200191505b509250505060405180910390f35b61026461065a565b005b6102926004803603604081101561027c57600080fd5b506001600160a01b038135169060200135610703565b604080519115158252519081900360200190f35b6102ae610719565b60408051918252519081900360200190f35b610292600480360360608110156102d657600080fd5b506001600160a01b0381358116916020810135909116906040013561071f565b610292610788565b610264610798565b6102ae610827565b61031661084b565b6040805160ff9092168252519081900360200190f35b6102ae610854565b6102926004803603604081101561034a57600080fd5b506001600160a01b03813516906020013561085a565b6102646004803603604081101561037657600080fd5b506001600160a01b038135169060200135610890565b610264600480360360208110156103a257600080fd5b50356108e7565b610264600480360360208110156103bf57600080fd5b50356001600160a01b03166108f4565b6102646109f4565b610292600480360360208110156103ed57600080fd5b50356001600160a01b0316610aa0565b6102ae6004803603602081101561041357600080fd5b50356001600160a01b0316610b27565b6102646004803603604081101561043957600080fd5b506001600160a01b038135169060200135610b42565b6102ae6004803603602081101561046557600080fd5b50356001600160a01b0316610b4c565b61047d610b73565b604080516001600160a01b039092168252519081900360200190f35b6101e7610b97565b610264600480360360408110156104b757600080fd5b506001600160a01b038135169060200135610bf8565b610292600480360360408110156104e357600080fd5b506001600160a01b038135169060200135610c44565b6102926004803603604081101561050f57600080fd5b506001600160a01b038135169060200135610c93565b61047d610ca0565b61047d610caf565b610264610cbe565b610264600480360360e081101561055357600080fd5b506001600160a01b03813581169160208101359091169060408101359060608101359060ff6080820135169060a08101359060c00135610e4b565b6102ae600480360360408110156105a457600080fd5b506001600160a01b0381358116916020013516611078565b61047d6110a3565b60038054604080516020601f60026000196101006001881615020190951694909404938401819004810282018101909252828152606093909290918301828280156106505780601f1061062557610100808354040283529160200191610650565b820191906000526020600020905b81548152906001019060200180831161063357829003601f168201915b5050505050905090565b6008546001600160a01b031633146106b9576040805162461bcd60e51b815260206004820181905260248201527f4f776e61626c653a2063616c6c6572206973206e6f7420746865206f776e6572604482015290519081900360640190fd5b6008546040516000916001600160a01b0316907fea8258f2d9ddb679928cf34b78cf645b7feda9acc828e4dd82d014eaae270eba908390a3600880546001600160a01b0319169055565b60006107103384846110b2565b50600192915050565b60025490565b600061072c84848461119e565b61077e843361077985604051806060016040528060288152602001611723602891396001600160a01b038a16600090815260016020908152604080832033845290915290205491906112f9565b6110b2565b5060019392505050565b600a54600160a01b900460ff1681565b6008546001600160a01b031633146107f7576040805162461bcd60e51b815260206004820181905260248201527f4f776e61626c653a2063616c6c6572206973206e6f7420746865206f776e6572604482015290519081900360640190fd5b600a80547fffffffffffffffffffffff00ffffffffffffffffffffffffffffffffffffffff16600160a01b179055565b7f6e71edae12b1b97f4d1f60370fef10105fa2faae0126114a169c64845d6126c981565b60055460ff1690565b60075481565b3360008181526001602090815260408083206001600160a01b038716845290915281205490916107109185906107799086611390565b600a546001600160a01b031633146108d95760405162461bcd60e51b815260040180806020018281038252602381526020018061174b6023913960400191505060405180910390fd5b6108e382826113f1565b5050565b6108f133826114e1565b50565b6008546001600160a01b03163314610953576040805162461bcd60e51b815260206004820181905260248201527f4f776e61626c653a2063616c6c6572206973206e6f7420746865206f776e6572604482015290519081900360640190fd5b6001600160a01b0381166109985760405162461bcd60e51b81526004018080602001828103825260268152602001806116726026913960400191505060405180910390fd5b6008546040516001600160a01b038084169216907fea8258f2d9ddb679928cf34b78cf645b7feda9acc828e4dd82d014eaae270eba90600090a3600980546001600160a01b0319166001600160a01b0392909216919091179055565b6009546001600160a01b03163314610a3d5760405162461bcd60e51b81526004018080602001828103825260228152602001806116e06022913960400191505060405180910390fd5b6009546008546040516001600160a01b0392831692909116907faa151555690c956fc3ea32f106bb9f119b5237a061eaa8557cff3e51e3792c8d90600090a3600954600880546001600160a01b0319166001600160a01b03909216919091179055565b6008546000906001600160a01b03163314610b02576040805162461bcd60e51b815260206004820181905260248201527f4f776e61626c653a2063616c6c6572206973206e6f7420746865206f776e6572604482015290519081900360640190fd5b50600a80546001600160a01b0383166001600160a01b03199091161790556001919050565b6001600160a01b031660009081526020819052604090205490565b6108e38282610bf8565b6001600160a01b0381166000908152600660205260408120610b6d906115dd565b92915050565b7f000000000000000000000000000000000000000000000000000000000000000081565b60048054604080516020601f60026000196101006001881615020190951694909404938401819004810282018101909252828152606093909290918301828280156106505780601f1061062557610100808354040283529160200191610650565b6000610c288260405180606001604052806024815260200161176e60249139610c218633611078565b91906112f9565b9050610c358333836110b2565b610c3f83836114e1565b505050565b60006107103384610779856040518060600160405280602581526020016117fc602591393360009081526001602090815260408083206001600160a01b038d16845290915290205491906112f9565b600061071033848461119e565b6008546001600160a01b031681565b6009546001600160a01b031681565b600a54600160a01b900460ff16610d1c576040805162461bcd60e51b815260206004820152601560248201527f436c61696d206e6f7420656e61626c6564207965740000000000000000000000604482015290519081900360640190fd5b60007f00000000000000000000000000000000000000000000000000000000000000006001600160a01b03166370a08231336040518263ffffffff1660e01b815260040180826001600160a01b0316815260200191505060206040518083038186803b158015610d8b57600080fd5b505afa158015610d9f573d6000803e3d6000fd5b505050506040513d6020811015610db557600080fd5b50516040805163079cc67960e41b81523360048201526024810183905290519192506001600160a01b037f000000000000000000000000000000000000000000000000000000000000000016916379cc67909160448082019260009290919082900301818387803b158015610e2957600080fd5b505af1158015610e3d573d6000803e3d6000fd5b505050506108f133826113f1565b83421115610ea0576040805162461bcd60e51b815260206004820152601860248201527f5065726d69743a206578706972656420646561646c696e650000000000000000604482015290519081900360640190fd5b6001600160a01b03871660009081526006602052604081207f6e71edae12b1b97f4d1f60370fef10105fa2faae0126114a169c64845d6126c990899089908990610ee9906115dd565b604080516020808201979097526001600160a01b0395861681830152939094166060840152608083019190915260a082015260c08082018990528251808303909101815260e08201835280519084012060075461190160f01b610100840152610102830152610122808301829052835180840390910181526101428301808552815191860191909120600091829052610162840180865281905260ff8a166101828501526101a284018990526101c28401889052935191955092936001926101e280820193601f1981019281900390910190855afa158015610fcf573d6000803e3d6000fd5b5050604051601f1901519150506001600160a01b038116158015906110055750896001600160a01b0316816001600160a01b0316145b6110405760405162461bcd60e51b81526004018080602001828103825260218152602001806117026021913960400191505060405180910390fd5b6001600160a01b038a166000908152600660205260409020611061906115e1565b61106c8a8a8a6110b2565b50505050505050505050565b6001600160a01b03918216600090815260016020908152604080832093909416825291909152205490565b600a546001600160a01b031690565b6001600160a01b0383166110f75760405162461bcd60e51b81526004018080602001828103825260248152602001806117d86024913960400191505060405180910390fd5b6001600160a01b03821661113c5760405162461bcd60e51b81526004018080602001828103825260228152602001806116986022913960400191505060405180910390fd5b6001600160a01b03808416600081815260016020908152604080832094871680845294825291829020859055815185815291517f8c5be1e5ebec7d5bd14f71427d1e84f3dd0314c0f7b2291e5b200ac8c7c3b9259281900390910190a3505050565b6001600160a01b0383166111e35760405162461bcd60e51b81526004018080602001828103825260258152602001806117b36025913960400191505060405180910390fd5b6001600160a01b0382166112285760405162461bcd60e51b815260040180806020018281038252602381526020018061162d6023913960400191505060405180910390fd5b611233838383610c3f565b611270816040518060600160405280602681526020016116ba602691396001600160a01b03861660009081526020819052604090205491906112f9565b6001600160a01b03808516600090815260208190526040808220939093559084168152205461129f9082611390565b6001600160a01b038084166000818152602081815260409182902094909455805185815290519193928716927fddf252ad1be2c89b69c2b068fc378daa952ba7f163c4a11628f55a4df523b3ef92918290030190a3505050565b600081848411156113885760405162461bcd60e51b81526004018080602001828103825283818151815260200191508051906020019080838360005b8381101561134d578181015183820152602001611335565b50505050905090810190601f16801561137a5780820380516001836020036101000a031916815260200191505b509250505060405180910390fd5b505050900390565b6000828201838110156113ea576040805162461bcd60e51b815260206004820152601b60248201527f536166654d6174683a206164646974696f6e206f766572666c6f770000000000604482015290519081900360640190fd5b9392505050565b6001600160a01b03821661144c576040805162461bcd60e51b815260206004820152601f60248201527f45524332303a206d696e7420746f20746865207a65726f206164647265737300604482015290519081900360640190fd5b611457308383610c3f565b6002546114649082611390565b6002556001600160a01b03821660009081526020819052604090205461148a9082611390565b6001600160a01b038316600081815260208181526040918290209390935580518481529051919230927fddf252ad1be2c89b69c2b068fc378daa952ba7f163c4a11628f55a4df523b3ef9281900390910190a35050565b6001600160a01b0382166115265760405162461bcd60e51b81526004018080602001828103825260218152602001806117926021913960400191505060405180910390fd5b61153282600083610c3f565b61156f81604051806060016040528060228152602001611650602291396001600160a01b03851660009081526020819052604090205491906112f9565b6001600160a01b03831660009081526020819052604090205560025461159590826115ea565b6002556040805182815290516000916001600160a01b038516917fddf252ad1be2c89b69c2b068fc378daa952ba7f163c4a11628f55a4df523b3ef9181900360200190a35050565b5490565b80546001019055565b60006113ea83836040518060400160405280601e81526020017f536166654d6174683a207375627472616374696f6e206f766572666c6f7700008152506112f956fe45524332303a207472616e7366657220746f20746865207a65726f206164647265737345524332303a206275726e20616d6f756e7420657863656564732062616c616e63654f776e61626c653a206e6577206f776e657220697320746865207a65726f206164647265737345524332303a20617070726f766520746f20746865207a65726f206164647265737345524332303a207472616e7366657220616d6f756e7420657863656564732062616c616e63654f776e61626c653a206d757374206265206e6577206f776e657220746f2070756c6c5a65726f537761705065726d69743a20496e76616c6964207369676e617475726545524332303a207472616e7366657220616d6f756e74206578636565647320616c6c6f77616e63655661756c744f776e65643a2063616c6c6572206973206e6f7420746865205661756c7445524332303a206275726e20616d6f756e74206578636565647320616c6c6f77616e636545524332303a206275726e2066726f6d20746865207a65726f206164647265737345524332303a207472616e736665722066726f6d20746865207a65726f206164647265737345524332303a20617070726f76652066726f6d20746865207a65726f206164647265737345524332303a2064656372656173656420616c6c6f77616e63652062656c6f77207a65726fa164736f6c6343000705000a5363686f6c617244414f3a20505344414f2063616e6e6f7420626520302061646472657373",
  "linkReferences": {},
  "deployedLinkReferences": {}
}