{
  "_format": "hh-sol-artifact-1",
  "contractName": "Staking",
  "sourceName": "contracts/Staking.sol",
  "abi": [
    {
      "inputs": [
        {
          "internalType": "address",
          "name": "_sdoge",
          "type": "address"
        },
        {
          "internalType": "address",
          "name": "_sSDOGE",
          "type": "address"
        },
        {
          "internalType": "uint256",
          "name": "_epochLength",
          "type": "uint256"
        },
        {
          "internalType": "uint256",
          "name": "_firstEpochNumber",
          "type": "uint256"
        },
        {
          "internalType": "uint256",
          "name": "_firstEpochTime",
          "type": "uint256"
        }
      ],
      "stateMutability": "nonpayable",
      "type": "constructor"
    },
    {
      "anonymous": false,
      "inputs": [
        {
          "indexed": false,
          "internalType": "address",
          "name": "distributor",
          "type": "address"
        }
      ],
      "name": "DistributorSet",
      "type": "event"
    },
    {
      "anonymous": false,
      "inputs": [
        {
          "indexed": true,
          "internalType": "address",
          "name": "previousOwner",
          "type": "address"
        },
        {
          "indexed": true,
          "internalType": "address",
          "name": "newOwner",
          "type": "address"
        }
      ],
      "name": "OwnershipPulled",
      "type": "event"
    },
    {
      "anonymous": false,
      "inputs": [
        {
          "indexed": true,
          "internalType": "address",
          "name": "previousOwner",
          "type": "address"
        },
        {
          "indexed": true,
          "internalType": "address",
          "name": "newOwner",
          "type": "address"
        }
      ],
      "name": "OwnershipPushed",
      "type": "event"
    },
    {
      "anonymous": false,
      "inputs": [
        {
          "indexed": false,
          "internalType": "uint256",
          "name": "warmup",
          "type": "uint256"
        }
      ],
      "name": "WarmupSet",
      "type": "event"
    },
    {
      "inputs": [],
      "name": "SDOGE",
      "outputs": [
        {
          "internalType": "contract IBEP20",
          "name": "",
          "type": "address"
        }
      ],
      "stateMutability": "view",
      "type": "function"
    },
    {
      "inputs": [
        {
          "internalType": "address",
          "name": "_to",
          "type": "address"
        }
      ],
      "name": "claim",
      "outputs": [
        {
          "internalType": "uint256",
          "name": "",
          "type": "uint256"
        }
      ],
      "stateMutability": "nonpayable",
      "type": "function"
    },
    {
      "inputs": [],
      "name": "distributor",
      "outputs": [
        {
          "internalType": "contract IDistributor",
          "name": "",
          "type": "address"
        }
      ],
      "stateMutability": "view",
      "type": "function"
    },
    {
      "inputs": [],
      "name": "epoch",
      "outputs": [
        {
          "internalType": "uint256",
          "name": "length",
          "type": "uint256"
        },
        {
          "internalType": "uint256",
          "name": "number",
          "type": "uint256"
        },
        {
          "internalType": "uint256",
          "name": "end",
          "type": "uint256"
        },
        {
          "internalType": "uint256",
          "name": "distribute",
          "type": "uint256"
        }
      ],
      "stateMutability": "view",
      "type": "function"
    },
    {
      "inputs": [],
      "name": "forfeit",
      "outputs": [
        {
          "internalType": "uint256",
          "name": "",
          "type": "uint256"
        }
      ],
      "stateMutability": "nonpayable",
      "type": "function"
    },
    {
      "inputs": [],
      "name": "index",
      "outputs": [
        {
          "internalType": "uint256",
          "name": "",
          "type": "uint256"
        }
      ],
      "stateMutability": "view",
      "type": "function"
    },
    {
      "inputs": [],
      "name": "policy",
      "outputs": [
        {
          "internalType": "address",
          "name": "",
          "type": "address"
        }
      ],
      "stateMutability": "view",
      "type": "function"
    },
    {
      "inputs": [],
      "name": "pullManagement",
      "outputs": [],
      "stateMutability": "nonpayable",
      "type": "function"
    },
    {
      "inputs": [
        {
          "internalType": "address",
          "name": "newOwner_",
          "type": "address"
        }
      ],
      "name": "pushManagement",
      "outputs": [],
      "stateMutability": "nonpayable",
      "type": "function"
    },
    {
      "inputs": [],
      "name": "rebase",
      "outputs": [
        {
          "internalType": "uint256",
          "name": "",
          "type": "uint256"
        }
      ],
      "stateMutability": "nonpayable",
      "type": "function"
    },
    {
      "inputs": [],
      "name": "renounceManagement",
      "outputs": [],
      "stateMutability": "nonpayable",
      "type": "function"
    },
    {
      "inputs": [],
      "name": "sSDOGE",
      "outputs": [
        {
          "internalType": "contract IStakedScholarDogeToken",
          "name": "",
          "type": "address"
        }
      ],
      "stateMutability": "view",
      "type": "function"
    },
    {
      "inputs": [],
      "name": "secondsToNextEpoch",
      "outputs": [
        {
          "internalType": "uint256",
          "name": "",
          "type": "uint256"
        }
      ],
      "stateMutability": "view",
      "type": "function"
    },
    {
      "inputs": [
        {
          "internalType": "address",
          "name": "_distributor",
          "type": "address"
        }
      ],
      "name": "setDistributor",
      "outputs": [],
      "stateMutability": "nonpayable",
      "type": "function"
    },
    {
      "inputs": [
        {
          "internalType": "uint256",
          "name": "_warmupPeriod",
          "type": "uint256"
        }
      ],
      "name": "setWarmupLength",
      "outputs": [],
      "stateMutability": "nonpayable",
      "type": "function"
    },
    {
      "inputs": [
        {
          "internalType": "address",
          "name": "_to",
          "type": "address"
        },
        {
          "internalType": "uint256",
          "name": "_amount",
          "type": "uint256"
        },
        {
          "internalType": "bool",
          "name": "_claim",
          "type": "bool"
        }
      ],
      "name": "stake",
      "outputs": [
        {
          "internalType": "uint256",
          "name": "",
          "type": "uint256"
        }
      ],
      "stateMutability": "nonpayable",
      "type": "function"
    },
    {
      "inputs": [],
      "name": "supplyInWarmup",
      "outputs": [
        {
          "internalType": "uint256",
          "name": "",
          "type": "uint256"
        }
      ],
      "stateMutability": "view",
      "type": "function"
    },
    {
      "inputs": [],
      "name": "toggleLock",
      "outputs": [],
      "stateMutability": "nonpayable",
      "type": "function"
    },
    {
      "inputs": [
        {
          "internalType": "address",
          "name": "_to",
          "type": "address"
        },
        {
          "internalType": "uint256",
          "name": "_amount",
          "type": "uint256"
        },
        {
          "internalType": "bool",
          "name": "_trigger",
          "type": "bool"
        }
      ],
      "name": "unstake",
      "outputs": [
        {
          "internalType": "uint256",
          "name": "amount_",
          "type": "uint256"
        }
      ],
      "stateMutability": "nonpayable",
      "type": "function"
    },
    {
      "inputs": [
        {
          "internalType": "address",
          "name": "",
          "type": "address"
        }
      ],
      "name": "warmupInfo",
      "outputs": [
        {
          "internalType": "uint256",
          "name": "deposit",
          "type": "uint256"
        },
        {
          "internalType": "uint256",
          "name": "gons",
          "type": "uint256"
        },
        {
          "internalType": "uint256",
          "name": "expiry",
          "type": "uint256"
        },
        {
          "internalType": "bool",
          "name": "lock",
          "type": "bool"
        }
      ],
      "stateMutability": "view",
      "type": "function"
    },
    {
      "inputs": [],
      "name": "warmupPeriod",
      "outputs": [
        {
          "internalType": "uint256",
          "name": "",
          "type": "uint256"
        }
      ],
      "stateMutability": "view",
      "type": "function"
    }
  ],
  "bytecode": "0x60c060405234801561001057600080fd5b50604051611a6e380380611a6e833981810160405260a081101561003357600080fd5b50805160208201516040808401516060850151608090950151600080546001600160a01b031916331780825593519596949592949391926001600160a01b0392909216917fea8258f2d9ddb679928cf34b78cf645b7feda9acc828e4dd82d014eaae270eba908290a36001600160a01b0385166100f7576040805162461bcd60e51b815260206004820152601360248201527f5a65726f20616464726573733a2053444f474500000000000000000000000000604482015290519081900360640190fd5b6001600160601b0319606086901b166080526001600160a01b038416610164576040805162461bcd60e51b815260206004820152601460248201527f5a65726f20616464726573733a207353444f4745000000000000000000000000604482015290519081900360640190fd5b6001600160601b0319606094851b1660a0526040805160808101825284815260208101849052908101829052600094018490526002929092556003556004556005555060805160601c60a05160601c611858610216600039806105595280610607528061069e52806106e152806108505280610d225280610e475280610edd528061114d528061134052508061071752806107f9528061082a5280610bfa5280611096528061129d52506118586000f3fe608060405234801561001057600080fd5b50600436106101775760003560e01c80636746f4c2116100d8578063995846bd1161008c578063deac361a11610066578063deac361a1461036f578063f3d86e4a14610377578063ff9413d81461037f57610177565b8063995846bd1461032b578063af14052c1461035f578063bfe109281461036757610177565b8063900cf0cf116100bd578063900cf0cf146102d85780639238d592146103065780639483c1d71461032357610177565b80636746f4c21461026457806375619ab5146102b257610177565b806321d0af341161012f5780632986c0e5116101145780632986c0e51461022e57806346f68ee9146102365780635a96ac0a1461025c57610177565b806321d0af34146101f2578063226d96341461022657610177565b80631e83409a116101605780631e83409a146101aa57806320138641146101e257806320ff23bf146101ea57610177565b80630505c8c91461017c578063089208d8146101a0575b600080fd5b610184610387565b604080516001600160a01b039092168252519081900360200190f35b6101a8610396565b005b6101d0600480360360208110156101c057600080fd5b50356001600160a01b031661043f565b60408051918252519081900360200190f35b6101d0610603565b61018461069c565b6101d06004803603606081101561020857600080fd5b506001600160a01b03813516906020810135906040013515156106c0565b610184610828565b6101d061084c565b6101a86004803603602081101561024c57600080fd5b50356001600160a01b03166108a7565b6101a86109a6565b61028a6004803603602081101561027a57600080fd5b50356001600160a01b0316610a50565b6040805194855260208501939093528383019190915215156060830152519081900360800190f35b6101a8600480360360208110156102c857600080fd5b50356001600160a01b0316610a7a565b6102e0610b2d565b604080519485526020850193909352838301919091526060830152519081900360800190f35b6101a86004803603602081101561031c57600080fd5b5035610b3c565b6101d0610bd6565b6101d06004803603606081101561034157600080fd5b506001600160a01b0381351690602081013590604001351515610beb565b6101d0610ecd565b6101846111fa565b6101d0611209565b6101d061120f565b6101a86112cb565b6000546001600160a01b031690565b6000546001600160a01b031633146103f5576040805162461bcd60e51b815260206004820181905260248201527f4f776e61626c653a2063616c6c6572206973206e6f7420746865206f776e6572604482015290519081900360640190fd5b600080546040516001600160a01b03909116907fea8258f2d9ddb679928cf34b78cf645b7feda9acc828e4dd82d014eaae270eba908390a3600080546001600160a01b0319169055565b6000610449611765565b506001600160a01b03821660009081526007602090815260409182902082516080810184528154815260018201549281019290925260028101549282019290925260039091015460ff161515606082018190526104e7576001600160a01b03831633146104e75760405162461bcd60e51b81526004018080602001828103825260268152602001806117de6026913960400191505060405180910390fd5b6040810151600354108015906105005750604081015115155b156105f8576001600160a01b038316600090815260076020908152604082208281556001810183905560028101929092556003909101805460ff1916905581015160095461054d916112ef565b6009819055506105f0837f00000000000000000000000000000000000000000000000000000000000000006001600160a01b0316637965d56d84602001516040518263ffffffff1660e01b81526004018082815260200191505060206040518083038186803b1580156105bf57600080fd5b505afa1580156105d3573d6000803e3d6000fd5b505050506040513d60208110156105e957600080fd5b5051611331565b9150506105fe565b60009150505b919050565b60007f00000000000000000000000000000000000000000000000000000000000000006001600160a01b0316637965d56d6009546040518263ffffffff1660e01b81526004018082815260200191505060206040518083038186803b15801561066b57600080fd5b505afa15801561067f573d6000803e3d6000fd5b505050506040513d602081101561069557600080fd5b5051905090565b7f000000000000000000000000000000000000000000000000000000000000000081565b81600082156106d4576106d1610ecd565b90505b6107096001600160a01b037f00000000000000000000000000000000000000000000000000000000000000001633308761136d565b61071382826114f5565b91507f00000000000000000000000000000000000000000000000000000000000000006001600160a01b03166370a08231306040518263ffffffff1660e01b815260040180826001600160a01b0316815260200191505060206040518083038186803b15801561078257600080fd5b505afa158015610796573d6000803e3d6000fd5b505050506040513d60208110156107ac57600080fd5b50518211156107ec5760405162461bcd60e51b81526004018080602001828103825260268152602001806118266026913960400191505060405180910390fd5b6108206001600160a01b037f000000000000000000000000000000000000000000000000000000000000000016868461154f565b509392505050565b7f000000000000000000000000000000000000000000000000000000000000000081565b60007f00000000000000000000000000000000000000000000000000000000000000006001600160a01b0316632986c0e56040518163ffffffff1660e01b815260040160206040518083038186803b15801561066b57600080fd5b6000546001600160a01b03163314610906576040805162461bcd60e51b815260206004820181905260248201527f4f776e61626c653a2063616c6c6572206973206e6f7420746865206f776e6572604482015290519081900360640190fd5b6001600160a01b03811661094b5760405162461bcd60e51b81526004018080602001828103825260268152602001806117906026913960400191505060405180910390fd5b600080546040516001600160a01b03808516939216917fea8258f2d9ddb679928cf34b78cf645b7feda9acc828e4dd82d014eaae270eba91a3600180546001600160a01b0319166001600160a01b0392909216919091179055565b6001546001600160a01b031633146109ef5760405162461bcd60e51b81526004018080602001828103825260228152602001806118046022913960400191505060405180910390fd5b600154600080546040516001600160a01b0393841693909116917faa151555690c956fc3ea32f106bb9f119b5237a061eaa8557cff3e51e3792c8d91a3600154600080546001600160a01b0319166001600160a01b03909216919091179055565b60076020526000908152604090208054600182015460028301546003909301549192909160ff1684565b6000546001600160a01b03163314610ad9576040805162461bcd60e51b815260206004820181905260248201527f4f776e61626c653a2063616c6c6572206973206e6f7420746865206f776e6572604482015290519081900360640190fd5b600680546001600160a01b0383166001600160a01b0319909116811790915560408051918252517f86719c518c7d99ac94b3d405d462ea876ba5cd0a978461dc9a7c9862a94858869181900360200190a150565b60025460035460045460055484565b6000546001600160a01b03163314610b9b576040805162461bcd60e51b815260206004820181905260248201527f4f776e61626c653a2063616c6c6572206973206e6f7420746865206f776e6572604482015290519081900360640190fd5b60088190556040805182815290517fac17d51c35ac71d3eddc155985908430e88946d51e2f6093e93c1c0aba08f6c49181900360200190a150565b600454600090610be690426112ef565b905090565b6000610c226001600160a01b037f00000000000000000000000000000000000000000000000000000000000000001633308661136d565b610c34610c2d610ecd565b84906114f5565b9250818015610c435750600854155b15610c5957610c528484611331565b9050610ec6565b610c61611765565b506001600160a01b03841660009081526007602090815260409182902082516080810184528154815260018201549281019290925260028101549282019290925260039091015460ff16151560608201819052610cff576001600160a01b0385163314610cff5760405162461bcd60e51b81526004018080602001828103825260288152602001806117b66028913960400191505060405180910390fd5b604080516080810190915281518190610d1890876114f5565b8152602001610dbb7f00000000000000000000000000000000000000000000000000000000000000006001600160a01b0316631bd39674886040518263ffffffff1660e01b81526004018082815260200191505060206040518083038186803b158015610d8457600080fd5b505afa158015610d98573d6000803e3d6000fd5b505050506040513d6020811015610dae57600080fd5b50516020850151906114f5565b8152600854600354602090920191610dd2916114f5565b815260608381015115156020928301526001600160a01b038881166000908152600784526040908190208551815585850151600182015585820151600282015594909201516003909401805460ff19169415159490941790935580516306f4e59d60e21b8152600481018890529051610ebe937f00000000000000000000000000000000000000000000000000000000000000001692631bd396749260248082019391829003018186803b158015610e8957600080fd5b505afa158015610e9d573d6000803e3d6000fd5b505050506040513d6020811015610eb357600080fd5b5051600954906114f5565b600955508290505b9392505050565b60008042600280015411610be6577f00000000000000000000000000000000000000000000000000000000000000006001600160a01b031663058ecdb46002600301546002600101546040518363ffffffff1660e01b81526004018083815260200182815260200192505050602060405180830381600087803b158015610f5357600080fd5b505af1158015610f67573d6000803e3d6000fd5b505050506040513d6020811015610f7d57600080fd5b5050600254600454610f8e916114f5565b6004556003805460010190556006546001600160a01b03161561109257600660009054906101000a90046001600160a01b03166001600160a01b031663e4fc6b6d6040518163ffffffff1660e01b8152600401600060405180830381600087803b158015610ffb57600080fd5b505af115801561100f573d6000803e3d6000fd5b50505050600660009054906101000a90046001600160a01b03166001600160a01b031663e7187e8a6040518163ffffffff1660e01b8152600401602060405180830381600087803b15801561106357600080fd5b505af1158015611077573d6000803e3d6000fd5b505050506040513d602081101561108d57600080fd5b505190505b60007f00000000000000000000000000000000000000000000000000000000000000006001600160a01b03166370a08231306040518263ffffffff1660e01b815260040180826001600160a01b0316815260200191505060206040518083038186803b15801561110157600080fd5b505afa158015611115573d6000803e3d6000fd5b505050506040513d602081101561112b57600080fd5b505160408051639358928b60e01b815290519192506000916001600160a01b037f00000000000000000000000000000000000000000000000000000000000000001691639358928b916004808301926020929190829003018186803b15801561119357600080fd5b505afa1580156111a7573d6000803e3d6000fd5b505050506040513d60208110156111bd57600080fd5b505190506111cb81846114f5565b82116111db5760006005556111f3565b6111ef836111e984846112ef565b906112ef565b6005555b5050905090565b6006546001600160a01b031681565b60085481565b6000611219611765565b503360008181526007602081815260408084208151608081018352815481526001820180548286019081526002840180549584019590955260038401805460ff81161515606086015299895296909552918690559085905593905560ff199093169055905160095461128a916112ef565b60095580516112c5906001600160a01b037f00000000000000000000000000000000000000000000000000000000000000001690339061154f565b51905090565b336000908152600760205260409020600301805460ff19811660ff90911615179055565b6000610ec683836040518060400160405280601e81526020017f536166654d6174683a207375627472616374696f6e206f766572666c6f7700008152506116ce565b60006113676001600160a01b037f000000000000000000000000000000000000000000000000000000000000000016848461154f565b50919050565b604080516001600160a01b0385811660248301528481166044830152606480830185905283518084039091018152608490920183526020820180517bffffffffffffffffffffffffffffffffffffffffffffffffffffffff166323b872dd60e01b17815292518251600094606094938a169392918291908083835b602083106114075780518252601f1990920191602091820191016113e8565b6001836020036101000a0380198251168184511680821785525050505050509050019150506000604051808303816000865af19150503d8060008114611469576040519150601f19603f3d011682016040523d82523d6000602084013e61146e565b606091505b509150915081801561149c57508051158061149c575080806020019051602081101561149957600080fd5b50515b6114ed576040805162461bcd60e51b815260206004820152601460248201527f5452414e534645525f46524f4d5f4641494c4544000000000000000000000000604482015290519081900360640190fd5b505050505050565b600082820183811015610ec6576040805162461bcd60e51b815260206004820152601b60248201527f536166654d6174683a206164646974696f6e206f766572666c6f770000000000604482015290519081900360640190fd5b604080516001600160a01b038481166024830152604480830185905283518084039091018152606490920183526020820180517bffffffffffffffffffffffffffffffffffffffffffffffffffffffff1663a9059cbb60e01b178152925182516000946060949389169392918291908083835b602083106115e15780518252601f1990920191602091820191016115c2565b6001836020036101000a0380198251168184511680821785525050505050509050019150506000604051808303816000865af19150503d8060008114611643576040519150601f19603f3d011682016040523d82523d6000602084013e611648565b606091505b5091509150818015611676575080511580611676575080806020019051602081101561167357600080fd5b50515b6116c7576040805162461bcd60e51b815260206004820152600f60248201527f5452414e534645525f4641494c45440000000000000000000000000000000000604482015290519081900360640190fd5b5050505050565b6000818484111561175d5760405162461bcd60e51b81526004018080602001828103825283818151815260200191508051906020019080838360005b8381101561172257818101518382015260200161170a565b50505050905090810190601f16801561174f5780820380516001836020036101000a031916815260200191505b509250505060405180910390fd5b505050900390565b6040518060800160405280600081526020016000815260200160008152602001600015158152509056fe4f776e61626c653a206e6577206f776e657220697320746865207a65726f206164647265737345787465726e616c206465706f7369747320666f72206163636f756e7420617265206c6f636b656445787465726e616c20636c61696d7320666f72206163636f756e7420617265206c6f636b65644f776e61626c653a206d757374206265206e6577206f776e657220746f2070756c6c496e73756666696369656e742053444f47452062616c616e636520696e20636f6e7472616374a164736f6c6343000705000a",
  "linkReferences": {},
  "deployedLinkReferences": {}
}